:020000040800F2
:1000000000500020692D0008512B0008572B0008D4
:100010005D2B0008632B0008692B0008000000001E
:100020000000000000000000000000006F2B00082E
:100030007B2B000800000000872B0008932B000892
:10004000B12D0008B12D0008B12D0008B12D000818
:10005000B12D0008B12D0008B12D0008B12D000808
:10006000B12D0008B12D0008B12D0008B12D0008F8
:10007000B12D0008B12D0008B12D0008B12D0008E8
:10008000B12D0008B12D0008B12D0008B12D0008D8
:10009000B12D0008B12D0008B12D0008B12D0008C8
:1000A000B12D0008A12B0008B12D0008B12D0008CA
:1000B000B12D0008B12D0008B12D0008B12D0008A8
:1000C000B12D0008B52B0008C92B0008B12D000880
:1000D000B12D0008B12D0008B12D0008B12D000888
:1000E000B12D0008B12D0008B12D0008000000005E
:1000F0000000000000000000000000000000000000
:0C01000000000000000000005FF808F1A3
:1001100010B5054C237833B9044B13B10448AFF341
:1001200000800123237010BDDC01002000000000CE
:1001300044B4000808B5034B1BB103490348AFF3AF
:10014000008008BD00000000E001002044B4000869
:10015000034613F8012B002AFBD1181A0138704707
:1001600081F0004102E000BF83F0004330B54FEA68
:1001700041044FEA430594EA050F08BF90EA020FD5
:100180001FBF54EA000C55EA020C7FEA645C7FEA68
:10019000655C00F0E2804FEA5454D4EB5555B8BF8B
:1001A0006D420CDD2C4480EA020281EA030382EAFC
:1001B000000083EA010180EA020281EA0303362D8E
:1001C00088BF30BD11F0004F4FEA01314FF4801C61
:1001D0004CEA113102D0404261EB410113F0004F73
:1001E0004FEA03334CEA133302D0524263EB43032A
:1001F00094EA050F00F0A780A4F10104D5F1200EC8
:100200000DDB02FA0EFC22FA05F2801841F1000122
:1002100003FA0EF2801843FA05F359410EE0A5F1F6
:1002200020050EF1200E012A03FA0EFC28BF4CF027
:10023000020C43FA05F3C01851EBE37101F00045DD
:1002400007D54FF0000EDCF1000C7EEB00006EEBEA
:100250000101B1F5801F1BD3B1F5001F0CD3490874
:100260005FEA30004FEA3C0C04F101044FEA4452CB
:1002700012F5800F80F09A80BCF1004F08BF5FEA52
:10028000500C50F1000041EB045141EA050130BD32
:100290005FEA4C0C404141EB0101013C28BFB1F544
:1002A000801FE9D291F0000F04BF01460020B1FA8F
:1002B00081F308BF2033A3F10B03B3F120020CDA62
:1002C0000C3208DD02F1140CC2F10C0201FA0CF040
:1002D00021FA02F10CE002F11402D8BFC2F1200CA5
:1002E00001FA02F120FA0CFCDCBF41EA0C0190405B
:1002F000E41AA2BF01EB0451294330BD6FEA0404A4
:100300001F3C1CDA0C340EDC04F11404C4F120028E
:1003100020FA04F001FA02F340EA030021FA04F3A0
:1003200045EA030130BDC4F10C04C4F1200220FAF7
:1003300002F001FA04F340EA0300294630BD21FA35
:1003400004F0294630BD94F0000F83F4801306BFFB
:1003500081F480110134013D4EE77FEA645C18BFEF
:100360007FEA655C29D094EA050F08BF90EA020F86
:1003700005D054EA000C04BF1946104630BD91EA7E
:10038000030F1EBF0021002030BD5FEA545C05D181
:100390004000494128BF41F0004130BD14F58004C0
:1003A0003CBF01F5801130BD01F0004545F0FE4134
:1003B00041F470014FF0000030BD7FEA645C1ABF69
:1003C000194610467FEA655C1CBF0B46024650EAA0
:1003D000013406BF52EA033591EA030F41F40021CC
:1003E00030BD00BF90F0000F04BF0021704730B552
:1003F0004FF4806404F132044FF000054FF0000127
:1004000050E700BF90F0000F04BF0021704730B5E7
:100410004FF4806404F1320410F0004548BF4042BC
:100420004FF000013EE700BF42004FEAE2014FEA11
:1004300031014FEA02701FBF12F07F4393F07F4FEC
:1004400081F06051704732F07F4208BF704793F0EF
:100450007F4F04BF41F40021704730B54FF4607402
:1004600001F0004521F000411CE700BF50EA010205
:1004700008BF704730B54FF000050AE050EA0102AE
:1004800008BF704730B511F0004502D5404261EB1E
:1004900041014FF4806404F132045FEA915C3FF45F
:1004A000D8AE4FF003025FEADC0C18BF03325FEAFC
:1004B000DC0C18BF033202EBDC02C2F1200300FAAD
:1004C00003FC20FA02F001FA03FE40EA0E0021FAD2
:1004D00002F11444BDE600BF70B54FF0FF0C4CF4C0
:1004E000E06C1CEA11541DBF1CEA135594EA0C0F72
:1004F00095EA0C0F00F0DEF82C4481EA030621EAAD
:100500004C5123EA4C5350EA013518BF52EA0335E7
:1005100041F4801143F4801338D0A0FB02CE4FF099
:100520000005E1FB02E506F00042E0FB03E54FF0C9
:100530000006E1FB03569CF0000F18BF4EF0010EC1
:10054000A4F1FF04B6F5007F64F5407404D25FEABD
:100550004E0E6D4146EB060642EAC62141EA555170
:100560004FEAC52040EA5E504FEACE2EB4F1FD0CB2
:1005700088BFBCF5E06F1ED8BEF1004F08BF5FEA30
:10058000500E50F1000041EB045170BD06F00046E2
:1005900046EA010140EA020081EA0301B4EB5C048F
:1005A000C2BFD4EB0C0541EA045170BD41F4801187
:1005B0004FF0000E013C00F3AB8014F1360FDEBFAC
:1005C000002001F0004170BDC4F10004203C35DA88
:1005D0000C341BDC04F11404C4F1200500FA05F30B
:1005E00020FA04F001FA05F240EA020001F00042AC
:1005F00021F0004110EBD37021FA04F642EB060122
:100600005EEA430E08BF20EAD37070BDC4F10C044B
:10061000C4F1200500FA04F320FA05F001FA04F20F
:1006200040EA020001F0004110EBD37041F10001FB
:100630005EEA430E08BF20EAD37070BDC4F1200506
:1006400000FA05F24EEA020E20FA04F301FA05F26E
:1006500043EA020321FA04F001F0004121FA04F216
:1006600020EA020000EBD3705EEA430E08BF20EAE6
:10067000D37070BD94F0000F0FD101F00046400020
:1006800041EB010111F4801F08BF013CF7D041EAA2
:10069000060195F0000F18BF704703F000465200A6
:1006A00043EB030313F4801F08BF013DF7D043EA77
:1006B0000603704794EA0C0F0CEA135518BF95EA2D
:1006C0000C0F0CD050EA410618BF52EA4306D1D1B4
:1006D00081EA030101F000414FF0000070BD50EAD3
:1006E000410606BF1046194652EA430619D094EA5D
:1006F0000C0F02D150EA013613D195EA0C0F05D147
:1007000052EA03361CBF104619460AD181EA03019A
:1007100001F0004141F0FE4141F470014FF0000052
:1007200070BD41F0FE4141F4780170BD70B54FF0ED
:10073000FF0C4CF4E06C1CEA11541DBF1CEA13556D
:1007400094EA0C0F95EA0C0F00F0A7F8A4EB05044F
:1007500081EA030E52EA03354FEA013100F0888046
:100760004FEA03334FF0805545EA131343EA12630F
:100770004FEA022245EA111545EA10654FEA0026C4
:100780000EF000419D4208BF964244F1FD0404F57D
:10079000407402D25B084FEA3202B61A65EB0305D9
:1007A0005B084FEA32024FF480104FF4002CB6EB96
:1007B000020E75EB030E22BFB61A754640EA0C0016
:1007C0005B084FEA3202B6EB020E75EB030E22BF56
:1007D000B61A754640EA5C005B084FEA3202B6EB97
:1007E000020E75EB030E22BFB61A754640EA9C0056
:1007F0005B084FEA3202B6EB020E75EB030E22BF26
:10080000B61A754640EADC0055EA060E18D04FEAE3
:10081000051545EA16754FEA06164FEAC30343EA83
:1008200052734FEAC2025FEA1C1CC0D111F4801F50
:100830000BD141EA00014FF000004FF0004CB6E749
:1008400011F4801F04BF01430020B4F1FD0C88BFE8
:10085000BCF5E06F3FF6AFAEB5EB030C04BFB6EBF3
:10086000020C5FEA500C50F1000041EB045170BDE6
:100870000EF0004E4EEA113114EB5C04C2BFD4EB13
:100880000C0541EA045170BD41F480114FF0000E97
:10089000013C90E645EA060E8DE60CEA135594EA13
:1008A0000C0F08BF95EA0C0F3FF43BAF94EA0C0F16
:1008B0000AD150EA01347FF434AF95EA0C0F7FF48B
:1008C00025AF104619462CE795EA0C0F06D152EADF
:1008D00003353FF4FDAE1046194622E750EA4106C3
:1008E00018BF52EA43067FF4C5AE50EA41047FF4D4
:1008F0000DAF52EA43057FF4EBAE12E74FF0FF3C39
:1009000006E000BF4FF0010C02E000BF4FF0010C09
:100910004DF804CD4FEA410C7FEA6C5C4FEA430C82
:1009200018BF7FEA6C5C1BD001B050EA410C0CBFD1
:1009300052EA430C91EA030F02BF90EA020F002033
:10094000704710F1000F91EA030F58BF994208BF9A
:1009500090422CBFD8176FEAE37040F00100704757
:100960004FEA410C7FEA6C5C02D150EA013C07D1AE
:100970004FEA430C7FEA6C5CD6D152EA033CD3D0F9
:100980005DF8040B704700BF8446104662468C46F3
:100990001946634600E000BF01B5FFF7B7FF002826
:1009A00048BF10F1000F01BD4DF808EDFFF7F4FF4F
:1009B0000CBF012000205DF808FB00BF4DF808EDDA
:1009C000FFF7EAFF34BF012000205DF808FB00BFFD
:1009D0004DF808EDFFF7E0FF94BF012000205DF81F
:1009E00008FB00BF4DF808EDFFF7CEFF94BF0120D4
:1009F00000205DF808FB00BF4DF808EDFFF7C4FFCD
:100A000034BF012000205DF808FB00BF4FEA410C15
:100A10007FEA6C5C02D150EA013C0AD14FEA430CF8
:100A20007FEA6C5C02D152EA033C02D14FF0000035
:100A300070474FF0010070474FEA410212F5001273
:100A400015D211D56FF47873B3EB625212D94FEA15
:100A5000C12343F0004343EA505311F0004F23FAFF
:100A600002F018BF404270474FF00000704750EA54
:100A7000013005D111F0004008BF6FF00040704711
:100A80004FF00000704700BF4A0011D212F500126B
:100A900011D20DD56FF47873B3EB62520ED44FEAD6
:100AA000C12343F0004343EA505323FA02F0704756
:100AB0004FF00000704750EA013002D14FF0FF3094
:100AC00070474FF0000070474FEA4102B2F1E04337
:100AD00024BFB3F5001CDCF1FE5C0DD901F0004C25
:100AE0004FEAC0024CEA5070B2F1004F40EB830075
:100AF00008BF20F00100704711F0804F21D113F1A1
:100B00003872BCBF01F00040704741F480114FEAD9
:100B10005252C2F11802C2F1200C10FA0CF320FA62
:100B200002F018BF40F001004FEAC1234FEAD3237F
:100B300003FA0CFC40EA0C0023FA02F34FEA4303E9
:100B4000CCE77FEA625307D150EA01331EBF4FF072
:100B5000FE4040F44000704701F0004040F0FE408D
:100B600040F40000704700BF80F0004002E000BF8A
:100B700081F0004142001FBF5FEA410392EA030F88
:100B80007FEA226C7FEA236C6AD04FEA1262D2EBD2
:100B90001363C1BFD218414048404140B8BF5B42D7
:100BA000192B88BF704710F0004F40F4000020F070
:100BB0007F4018BF404211F0004F41F4000121F086
:100BC0007F4118BF494292EA030F3FD0A2F10102D0
:100BD00041FA03FC10EB0C00C3F1200301FA03F10E
:100BE00000F0004302D5494260EB4000B0F5000F31
:100BF00013D3B0F1807F06D340084FEA310102F1F0
:100C00000102FE2A51D2B1F1004F40EBC25008BFA1
:100C100020F0010040EA03007047490040EB00006B
:100C2000013A28BFB0F5000FEDD2B0FA80FCACF16C
:100C3000080CB2EB0C0200FA0CF0AABF00EBC25099
:100C400052421843BCBFD0401843704792F0000F87
:100C500081F4000106BF80F400000132013BB5E7DA
:100C60004FEA41037FEA226C18BF7FEA236C21D050
:100C700092EA030F04D092F0000F08BF08467047B5
:100C800090EA010F1CBF0020704712F07F4F04D183
:100C9000400028BF40F00040704712F100723CBF96
:100CA00000F50000704700F0004343F0FE4040F4C0
:100CB000000070477FEA226216BF08467FEA23637E
:100CC0000146420206BF5FEA412390EA010F40F469
:100CD000800070474FF0000304E000BF10F00043B5
:100CE00048BF40425FEA000C08BF704743F096439C
:100CF00001464FF000001CE050EA010208BF7047B7
:100D00004FF000030AE000BF50EA010208BF70473D
:100D100011F0004302D5404261EB41015FEA010C52
:100D200002BF84460146002043F0B64308BFA3F14A
:100D30008053A3F50003BCFA8CF2083AA3EBC2532C
:100D400010DB01FA02FC634400FA02FCC2F120024B
:100D5000BCF1004F20FA02F243EB020008BF20F082
:100D60000100704702F1200201FA02FCC2F12002E8
:100D700050EA4C0021FA02F243EB020008BF20EADD
:100D8000DC7070474FF0FF0C1CEAD0521EBF1CEA0B
:100D9000D15392EA0C0F93EA0C0F6FD01A4480EAF9
:100DA000010C400218BF5FEA41211ED04FF00063E2
:100DB00043EA501043EA5111A0FB01310CF000400E
:100DC000B1F5000F3EBF490041EAD3715B0040EA34
:100DD000010062F17F02FD2A1DD8B3F1004F40EB04
:100DE000C25008BF20F00100704790F0000F0CF0D7
:100DF000004C08BF49024CEA502040EA51207F3A9B
:100E0000C2BFD2F1FF0340EAC250704740F4000075
:100E10004FF00003013A5DDC12F1190FDCBF00F066
:100E200000407047C2F10002410021FA02F1C2F114
:100E3000200200FA02FC5FEA310040F1000053EAB0
:100E40004C0308BF20EADC70704792F0000F00F0FE
:100E5000004C02BF400010F4000F013AF9D040EA04
:100E60000C0093F0000F01F0004C02BF490011F498
:100E7000000F013BF9D041EA0C018FE70CEAD15396
:100E800092EA0C0F18BF93EA0C0F0AD030F0004C16
:100E900018BF31F0004CD8D180EA010000F00040CA
:100EA000704790F0000F17BF90F0004F084691F088
:100EB000000F91F0004F14D092EA0C0F01D14202C2
:100EC0000FD193EA0C0F03D14B0218BF084608D18B
:100ED00080EA010000F0004040F0FE4040F40000D5
:100EE000704740F0FE4040F4400070474FF0FF0C68
:100EF0001CEAD0521EBF1CEAD15392EA0C0F93EAAF
:100F00000C0F69D0A2EB030280EA010C49024FEA00
:100F1000402037D04FF0805343EA111143EA1013B9
:100F20000CF000408B4238BF5B0042F17D024FF471
:100F3000000C8B4224BF5B1A40EA0C00B3EB510F4C
:100F400024BFA3EB510340EA5C00B3EB910F24BF35
:100F5000A3EB910340EA9C00B3EBD10F24BFA3EBBA
:100F6000D10340EADC001B0118BF5FEA1C1CE0D182
:100F7000FD2A3FF650AF8B4240EBC25008BF20F035
:100F8000010070470CF0004C4CEA50207F32C2BF89
:100F9000D2F1FF0340EAC250704740F400004FF026
:100FA0000003013A37E792F0000F00F0004C02BF57
:100FB000400010F4000F013AF9D040EA0C0093F021
:100FC000000F01F0004C02BF490011F4000F013B7B
:100FD000F9D041EA0C0195E70CEAD15392EA0C0FE3
:100FE00008D142027FF47DAF93EA0C0F7FF470AF1B
:100FF000084676E793EA0C0F04D14B023FF44CAF5E
:1010000008466EE730F0004C18BF31F0004CCAD1F2
:1010100030F000427FF45CAF31F000437FF43CAF2E
:101020005FE700BF7BB972B90029BEBF00204FF057
:10103000004106E008BF00281CBF6FF000414FF0E0
:10104000FF3000F0A9B9ADF1080C6DE904CE00291C
:1010500009DB002B1ADB00F035F8DDF804E0DDE9F0
:10106000022304B07047404261EB4101002B1BDBBF
:1010700000F028F8DDF804E0DDE9022304B0404286
:1010800061EB4101524263EB43037047524263EB11
:10109000430300F017F8DDF804E0DDE9022304B0B3
:1010A000404261EB41017047524263EB430300F061
:1010B00009F8DDF804E0DDE9022304B0524263EBF5
:1010C000430370472DE9F047089E0D4604468846C5
:1010D000002B4DD18A42944668D9B2FA82F252B1BD
:1010E00001FA02F3C2F1200120FA01F10CFA02FC2C
:1010F00041EA030894404FEA1C41B8FBF1F71FFA9C
:101100008CFE01FB178807FB0EF0230C43EA084313
:1011100098420AD91CEB030307F1FF3580F01E81CA
:10112000984240F21B81023F63441B1AB3FBF1F06B
:1011300001FB103300FB0EFEA4B244EA0344A645B3
:101140000AD91CEB040400F1FF3380F00981A645A5
:1011500040F20681644402380021A4EB0E0440EA08
:1011600007401EB10023D440C6E90043BDE8F08724
:101170008B4208D9002E00F0EE800021C6E9000560
:101180000846BDE8F087B3FA83F100294AD1AB42A3
:1011900002D3824200F2FC80841A65EB0303012033
:1011A0009846002EE2D0C6E90048DFE702B9FFDE2C
:1011B000B2FA82F2002A40F09180A1EB0C000121EA
:1011C0004FEA1C471FFA8CFEB0FBF7F307FB130036
:1011D000250C45EA00450EFB03F0A84208D91CEB9C
:1011E000050503F1FF3802D2A84200F2CE80434643
:1011F0002D1AB5FBF7F007FB10550EFB00FEA4B24D
:1012000044EA0544A64508D91CEB040400F1FF3567
:1012100002D2A64500F2B6802846A4EB0E0440EAAE
:1012200003409EE7C1F120078B4022FA07FC4CEAFD
:10123000030C25FA07FA4FEA1C49BAFBF9F820FA21
:1012400007F309FB18AA8D401FFA8CFE1D4300FA14
:1012500001F308FB0EF02C0C44EA0A44A04202FA07
:1012600001F20BD91CEB040408F1FF3A80F08880EE
:10127000A04240F28580A8F102086444241AB4FB1D
:10128000F9F009FB104400FB0EFEADB245EA044440
:10129000A64508D91CEB040400F1FF356CD2A64525
:1012A0006AD90238644440EA0840A0FB0295A4EBE6
:1012B0000E04AC42C846AE4656D353D0002E69D079
:1012C000B3EB080264EB0E0422FA01F304FA07F709
:1012D0001F43CC40C6E90074002147E70CFA02FC2A
:1012E000C2F1200125FA01F34FEA1C4720FA01F16F
:1012F00095400D43B3FBF7F107FB11331FFA8CFE4A
:10130000280C40EA034001FB0EF3834204FA02F486
:1013100008D91CEB000001F1FF382FD283422DD9F0
:1013200002396044C01AB0FBF7F307FB1300ADB2FB
:1013300045EA004503FB0EF0A84208D91CEB050561
:1013400003F1FF3816D2A84214D9023B6544281A8B
:1013500043EA014138E73146304607E72F46E4E6E5
:101360001846F9E64B45A9D2B9EB020865EB0C0E1D
:101370000138A3E74346EAE7284694E74146D1E728
:10138000D0467BE76444023847E7023B65442FE7D9
:10139000084606E73146E9E6704700BF90B597B0CA
:1013A00014AF234B20221A70224C01231393204B9D
:1013B000129323231193684604F110034422194623
:1013C00006F07AFA94E80F0000F022FF194C02238D
:1013D0001393174B129323231193684604F11003C0
:1013E0004422194606F068FA94E80F0000F03BFF2B
:1013F0000F4B1B787B600E4B5B783B607B681B025E
:101400007B607A683B6813437B607868FEF7EAFF8D
:101410004FF03332084BFFF789F902460B4610466E
:101420001946FFF731FB034618460C37BD4690BD01
:10143000F8010020240200203333F33F80B500AFD1
:1014400001224FF40051024802F065F800BF80BD50
:101450000010014080B588B004AF0346FB800B4606
:101460007B7113463B710023FB73FB885B0099B2D1
:101470007B799AB24FF480330293012301933B1D91
:1014800000930123064802F001FD0346FB73FB7B3A
:10149000002B01D0FFF7D2FF00BF1037BD4680BD43
:1014A0002402002080B588B004AF03460A46FB80C2
:1014B00013467B710023FB730023BB73FB885B0027
:1014C00099B27B799AB24FF480330293012301934E
:1014D00007F10E0300930123074802F0D1FD0346F4
:1014E000FB73FB7B002B01D0FFF7A8FFBB7B1846EB
:1014F0001037BD4680BD00BF2402002080B588B0F3
:1015000004AF03463A60FB800B467B710023FB73FC
:10151000FB885B0099B27B799AB24FF480330293D7
:10152000022301933B6800930123074802F0A8FDC2
:101530000346FB73FB7B002B01D0FFF77FFF00BF4F
:101540001037BD4680BD00BF2402002080B588B0A2
:1015500004AF03463A60FB800B467B710023FB73AC
:10156000FB885B0099B27B799AB24FF48033029387
:10157000032301933B6800930123074802F080FD99
:101580000346FB73FB7B002B01D0FFF757FF00BF27
:101590001037BD4680BD00BF2402002080B582B058
:1015A00000AF0346FB71FB7919467620FFF77AFFFF
:1015B00000BF18460837BD4680BD80B582B000AF79
:1015C00003460A46FB711346BB71BA79FB7919468B
:1015D0007620FFF73FFF00BF18460837BD4680BDA5
:1015E00080B582B000AFF320FFF7D8FF034603F0C9
:1015F0000903FB71FB7918460837BD4680BD80B5ED
:1016000000AFB621E020FFF7D8FF034683F00103C7
:10161000DBB2002B01D0002300E00123184680BD7F
:1016200080B582B000AF03463960FB71FB793A6840
:1016300019467620FFF78AFF3B681B681B0CDAB25D
:101640003B681B6803F47F431A433B681B681B0419
:1016500003F47F03134323F07F423B681A6000BF0B
:101660000837BD4680BD80B582B000AF0346396003
:10167000FB71FB793A6819467620FFF73FFF3B681C
:101680001B881B0A9BB21AB23B681B881B021BB249
:1016900013431BB29AB23B681A8000BF0837BD469D
:1016A00080BD80B582B000AF03463960FB71FB7925
:1016B0003A6819467620FFF721FF00BF0837BD467C
:1016C00080BD80B582B000AF03463960FB71FB7905
:1016D0003A6819467620FFF711FF00BF0837BD466C
:1016E00080BD000098B500AF37498820FFF7D9FFCB
:1016F00036498A20FFF7E5FF35498C20FFF7E1FFE7
:1017000034498E20FFF7CDFF33499020FFF7D9FFF2
:1017100032499220FFF7D5FF31499420FFF7D1FFDE
:1017200030499620FFF7CDFF2F499820FFF7C9FFDA
:101730002E499A20FFF7C5FF2D499C20FFF7C1FFD6
:101740002C499E20FFF7BDFFA120FFF727FF03468E
:101750001A461D4B1A762849E120FFF7B2FFE32015
:10176000FFF71CFF03461A46174B1A77E420FFF7D2
:1017700015FF03461B011CB2E520FFF70FFF0346D0
:101780001BB203F00F031BB223431AB20E4BDA83D2
:10179000E620FFF703FF03461B011CB2E520FFF71D
:1017A000FDFE03461B09DBB21BB223431AB2064BF4
:1017B0001A84E720FFF7F2FE03465AB2024B83F881
:1017C000222000BF98BD00BF0002002002020020BE
:1017D0000402002006020020080200200A02002065
:1017E0000C0200200E020020100200201202002035
:1017F00014020020160200201A02002080B584B0D6
:1018000000AF0346FB71F520FFF7C8FE034623F047
:101810001C03FB7397F9073003F01C035AB297F9C6
:101820000F3013435BB2FB73FB7B1946F520FFF7C8
:10183000C4FE00BF1037BD4680BD80B584B000AF88
:101840000346FB71F520FFF7A9FE034603F01F03D3
:10185000FB7397F9073023F01F035AB297F90F3043
:1018600013435BB2FB73FB7B1946F520FFF7A5FE24
:1018700000BF1037BD4680BD80B584B000AF0346C1
:10188000FB71F420FFF78AFE034603F01F03FB738E
:1018900097F9073023F01F035AB297F90F3013431B
:1018A0005BB2FB73FB7B1946F420FFF786FE00BF9B
:1018B0001037BD4680BD80B584B000AF0346FB71D4
:1018C000F420FFF76BFE034623F01C03FB7397F92C
:1018D000073003F01C035AB297F90F3013435BB281
:1018E000FB73FB7B1946F420FFF767FE00BF103740
:1018F000BD4680BD80B584B000AF0346FB71F220C9
:10190000FFF74CFE034623F00703FB7397F90730FC
:1019100003F007035AB297F90F3013435BB2FB731E
:10192000FB7B1946F220FFF748FEF420FFF736FE56
:101930000346FB73FB7B1946F420FFF73EFE00BF16
:101940001037BD4680BD80B584B000AF0346FB7143
:10195000F420FFF723FE034623F00303FB7397F9FC
:10196000073003F003035AB297F90F3013435BB209
:10197000FB73FB7B1946F420FFF71FFE00BF1037F7
:10198000BD4680BD80B584B000AF4FF00003FB6062
:1019900000F072F83B461946FD20FFF764FE3B68F5
:1019A0009BB2BB60324B1B68A3F596337B60BB6870
:1019B0009A03304BB3F91E301B05D21A2D4BB3F9E5
:1019C000203019467B6801FB03F3D31A03F58043EB
:1019D000DB13284A92F9222011467A6801FB02F2B1
:1019E00092122449097F0846796800FB01F1C91267
:1019F00001F5004101FB02F2921202F500121D49AD
:101A0000B1F91A1001FB02F202F50052921302FB27
:101A100003F37B607B68DB137A68D21302FB03F36A
:101A2000DB11144A127E02FB03F31B117A68D31AEE
:101A30007B607B6823EAE3737B607B68B3F1C85FFC
:101A4000A8BF4FF0C8537B607B681B131846FFF795
:101A500045F90346FB604FF08941F868FFF746FA05
:101A60000346FB60FB6818461037BD4680BD00BFCB
:101A7000FC0100200002002080B584B000AF4FF0D0
:101A80000003FB603B461946FA20FFF7C9FD3B689F
:101A90001B093B603B68DB081D4A128852009B1AF9
:101AA0001B4AB2F9022002FB03F3DB0ABB603B686E
:101AB0001B09174A12889B1A3A68120914490988A7
:101AC000521A02FB03F31B0B114AB2F9042002FB6A
:101AD00003F39B137B60BA687B6813440D4A136061
:101AE0000C4B1A6813469B00134480331B12184694
:101AF000FFF7F4F80346FB600749F868FFF7F6F9CB
:101B00000346FB60FB6818461037BD4680BD00BF2A
:101B100000020020FC0100200000C8422DE9B04F67
:101B2000D0B000AF4FF00003C7F83C31FFF7A4FF7F
:101B300007F58C731946F720FFF772FDD7F81831B7
:101B40001B09C7F81831AC4B1B68DA179846914649
:101B5000B8F5FA33BB6449F1FF33FB64D7E91223CC
:101B6000C7E94C23D7F83421D7F8303103FB02F111
:101B7000D7F83421D7F8303102FB03F3CA18D7F86D
:101B80003031A3FB034553191D469C4BB3F910306C
:101B90001BB2DA17C7F8C830C7F8CC20D7E9320132
:101BA000034603FB05F20B4604FB03F31344024612
:101BB000A4FB02AB5B449B46C7E94AABC7E94AAB0F
:101BC0008E4BB3F90E301BB2DA17C7F8C030C7F826
:101BD000C420D7F83031D7E930452A4602FB03F25A
:101BE000D7F83431214601FB03F31A44D7F83031DA
:101BF0002146A3FB0131C7F81411C7F81031D7F8FB
:101C00001431D318C7F814314FF000004FF0000121
:101C1000D7E944452B465904224641EAD2312346AE
:101C20005804D7E94A2314183C644B417B64D7E934
:101C30001034C7E94A34714BB3F90C301BB2DA17D0
:101C4000C7F8B830C7F8BC204FF000004FF00001D3
:101C5000D7F8B830D9000020D7E94A231418BC635C
:101C60004B41FB63D7E90E34C7E94A34D7F8342136
:101C7000D7F8303103FB02F1D7F83421D7F83031EF
:101C800002FB03F3CA18D7F83031A3FB0331C7F8BE
:101C90000C11C7F80831D7F80C31D318C7F80C313C
:101CA000564BB3F90A301BB2DA17C7F8B030C7F891
:101CB000B420D7E942342246D7E92C89414601FBBA
:101CC00002F24D4618462146034603FB05F3134432
:101CD00002464146A2FB0121C7F80411C7F80021C2
:101CE000D7F804211344C7F804314FF000004FF037
:101CF0000001D7E940452346180A2A4640EA026017
:101D00002B4619123D4BB3F908301BB2DA17C7F84E
:101D1000A830C7F8AC20D7F83031D7E92A894A462D
:101D200002FB03F2D7F83431444604FB03F31A44B0
:101D3000D7F830314446A3FB0434C7F8FC40C7F859
:101D4000F830D7F8FC30D318C7F8FC304FF0000259
:101D50004FF00003D7E93E894C462303C44643EACB
:101D60001C534446220384183C6341EB03037B630A
:101D7000D7E90C34C7E94C34D7E94C2303F50041CB
:101D8000C7F8A410C7F8A0201C4BDB889BB2002228
:101D9000C7F89830C7F89C20D7E928342246D7E9FD
:101DA0002689414601FB02F24D461846214603466C
:101DB00003FB05F3134402464146A2FB0121C7F889
:101DC000F410C7F8F020D7F8F4201344C7F8F43023
:101DD0004FF000024FF00003D7E93C4529464A1076
:101DE0002946CB17C7E94C23D7E94C23134307D126
:101DF0004FF0000392E100BFFC0100200002002030
:101E0000D7F81831C3F580130022BB62FA62D7E914
:101E10000A34C7E94834D7F820315B08C7F8943052
:101E2000D7F82031DB07C7F89030D7E94A23D7E944
:101E300024010446A41AC7F8884061EB0303C7F8DD
:101E40008C30D7E9224522462B46911839625B41F6
:101E50007B62D7E9082321465118B96129464B41D5
:101E6000FB614FF000024FF00003D7E906894946B5
:101E70008B01414643EA916341468A0141468918F4
:101E80003961494643EB010179614FF000024FF09F
:101E90000003D7E9048949468B00C44643EA9C7392
:101EA00041468A0010461946034622469B18BB60ED
:101EB0000B462A4642EB0303FB604FF000024FF053
:101EC0000003D7E9028949468B00C44643EA9C7364
:101ED00041468A0010461946034622469B18C7F819
:101EE00080302B460A4642EB0303C7F88430D7E91B
:101EF0004C23D7E92001FFF795F802460B46C7E9C6
:101F00004823894BB3F916301BB2DA17BB67FA675F
:101F1000D7E948234FF000004FF00001500B40EA92
:101F2000C3405913D7E91E452B4600FB03F2234655
:101F300003FB01F313442246A2FB0021C7F8EC1077
:101F4000C7F8E820D7F8EC201344C7F8EC30D7E9FD
:101F500048234FF000004FF00001500B40EAC3400F
:101F60005913D7E93A452B4600FB03F2234603FBFE
:101F700001F313442246A2FB0021C7F8E410C7F87E
:101F8000E020D7F8E4201344C7F8E4304FF0000213
:101F90004FF00003D7E9384521464A0E204629462E
:101FA0000C4642EAC4124B16C7E94C235E4BB3F908
:101FB00014301BB2DA173B677A67D7F82031D7E9BC
:101FC0001C452A4602FB03F2D7F82431214601FBC7
:101FD00003F31A44D7F820312146A3FB0131C7F897
:101FE000DC10C7F8D830D7F8DC30D318C7F8DC30AD
:101FF0004FF000024FF00003D7E936452146CA0CE6
:10200000204629460C4642EA4432CB14C7E94A230B
:10201000D7E94801D7E94C238418BC6641EB030398
:10202000FB66D7E94A23D7E91A452146891839665C
:10203000294643EB010179664FF000004FF00001A3
:10204000D7E918452346180A2A4640EA02602B467B
:102050001912354BB3F912301BB2DA17BB65FA65AA
:102060004FF000024FF00003D7E916894C462301D8
:10207000C44643EA1C734446220184183C6041EB89
:1020800003037B60D7E90034C7E94834D7E9480146
:102090004FF000024FF00003020A42EA01620B1205
:1020A0004FF47A7303FB02F4D7E9482302F0FF03ED
:1020B0003B6500237B651D4BD7E914894A4603FB2A
:1020C00002F20023414601FB03F31344174A414641
:1020D000A1FB0221C7F8D410C7F8D020D7F8D4202C
:1020E0001344C7F8D430124A4FF00003D7E9340143
:1020F000FEF798FF02460B4613462344C7F81C31EF
:10210000D7F81C01FEF7E6FD03460A491846FEF71C
:10211000EDFE0346C7F83C31D7F83C31184607F5C9
:10212000A077BD46BDE8B08F00020020E1F50500B4
:10213000A08601000000C84280B584B000AF78607E
:102140004FF00003FB60FFF7E9FCB8607968B868FE
:10215000FEF7CCFE03461846FEF766F910A3D3E956
:10216000002308F08BFA02460B464FF0000010499E
:10217000FDF7FAFF02460B46104619460AA3D3E9BB
:102180000023FEF7A9F902460B4610461946FEF752
:102190009BFC0346FB60FB6818461037BD4680BDBC
:1021A000EBE2361AC05BC83F0000000040A5E540E6
:1021B0000000F03F80B500AF00224FF400511348FB
:1021C00001F0A9F9D020FFF7E9F9FFF718FA00BFED
:1021D000FFF706FA034603F00103002BF8D1FFF7DF
:1021E00081FAA020FFF729FB0820FFF707FB6020FA
:1021F000FFF742FB0820FFF75EFB0120FFF77AFBA9
:102200000320FFF7A0FB00BF184680BD001001406F
:1022100084B080B582B002AF07F1080C8CE80F00E3
:1022200008E007F1080002F011FC0346042B01D07E
:10223000002312E097F85C309BB25B0099B297F8EC
:1022400064309BB24FF47A7200923A6E07F1080044
:1022500001F0BEFA0346002BE3D11846BD46BDE8A7
:10226000804004B0704784B080B582B002AF07F1FF
:10227000080C8CE80F0008E007F1080002F0E6FB0C
:102280000346042B01D0002312E097F85C309BB288
:102290005B0099B297F864309BB24FF47A72009267
:1022A0003A6E07F1080001F091FB0346002BE3D1E1
:1022B0001846BD46BDE8804004B0704780B483B086
:1022C00000AF0023FB8002E0FB880133FB80FB882A
:1022D000B3F57A7FF8D300BF00BF0C37BD4680BC92
:1022E0007047000080B582B000AF0346FB71FB79F8
:1022F000DB08DBB203F00103002B05D001224021F3
:10230000204801F008F904E0002240211D4801F0B6
:1023100002F9FB799B08DBB203F00103002B05D027
:1023200001222021174801F0F6F804E000222021C4
:10233000144801F0F0F8FB795B08DBB203F001030D
:10234000002B05D0012210210E4801F0E4F804E032
:10235000002210210B4801F0DEF8FB7903F00103A5
:10236000002B05D001220821064801F0D4F804E032
:1023700000220821034801F0CEF800BF0837BD460F
:1023800080BD00BF000C014080B582B000AF0346A5
:10239000FB7101224FF48071144801F0BCF8FB7905
:1023A0001B09DBB21846FFF79DFF012280210F4871
:1023B00001F0B1F8FFF782FF002280210B4801F005
:1023C000AAF8FB791846FFF78DFF01228021074804
:1023D00001F0A1F8FFF772FF00228021034801F00D
:1023E0009AF800BF0837BD4680BD00BF000C014011
:1023F00080B582B000AF0346FB7100224FF48071BC
:10240000144801F088F8FB791B09DBB21846FFF786
:1024100069FF012280210F4801F07DF8FFF74EFF90
:10242000002280210B4801F076F8FB791846FFF76F
:1024300059FF01228021074801F06DF8FFF73EFFA8
:1024400000228021034801F066F800BF0837BD462E
:1024500080BD00BF000C014080B584B000AF786043
:102460000023FB7309E0FB7B7A6813441B78184652
:1024700000F00EF8FB7B0133FB73FB7B7A6813449F
:102480001B78002BEFD100BF00BF1037BD4680BDC9
:1024900080B582B000AF0346FB71FB791846FFF7A9
:1024A00073FFFFF70BFF00BF0837BD4680BD80B547
:1024B00000AF0120FFF79CFF022000F0DDFC00BF11
:1024C00080BD80B582B000AF03460A46FB7113465B
:1024D000BB71BB79002B02D0012B0BD019E0FB792B
:1024E00063F07F03DBB21846FFF782FF012000F0A4
:1024F000C3FC0EE0FB794033DBB25BB263F07F03D9
:102500005BB2DBB21846FFF773FF012000F0B4FCAA
:1025100000BF00BF0837BD4680BD000080B500AFDA
:10252000282000F0A9FC00224FF480712C4800F014
:10253000F2FF0320FFF7D6FE01228021284800F099
:10254000EAFFFFF7BBFE00228021254800F0E3FFF1
:10255000012000F091FC0320FFF7C4FE012280213E
:102560001F4800F0D8FFFFF7A9FE002280211C4879
:1025700000F0D1FF012000F07FFC0320FFF7B2FE46
:1025800001228021164800F0C6FFFFF797FE0022C7
:102590008021134800F0BFFF012000F06DFC0820EF
:1025A000FFF726FF012000F067FC0C20FFF720FF5B
:1025B000012000F061FC0120FFF71AFF022000F06B
:1025C0005BFC0620FFF714FF012000F055FC022001
:1025D000FFF70EFF022000F04FFC00BF80BD00BFE0
:1025E000000C014080B582B000AF7860022108483D
:1025F00000F07AFF0346002B06D1064B1B78DBB2B6
:102600000133DAB2034B1A7000BF0837BD4680BDF4
:1026100000080140C002002080B582B000AF7860A1
:10262000396014497868FEF7ADFB03461846FDF79C
:10263000FBFE02460B461049104805F0B3FD002191
:102640000020FFF73EFF0D48FFF706FF3868FDF753
:10265000EBFE02460B460A49084805F0A3FD01219E
:102660000020FFF72EFF0548FFF7F6FE00BF0837F2
:10267000BD4680BDCA9F443A68B40008C402002029
:1026800074B4000880B582B000AF78607868FDF758
:10269000CBFE02460B460749074805F083FD0021A3
:1026A0000020FFF70EFF0448FFF7D6FE00BF0837F3
:1026B000BD4680BD84B40008C402002080B582B04D
:1026C00000AF78607A680749074805F06BFD002184
:1026D0000020FFF7F6FE0448FFF7BEFE00BF0837F4
:1026E000BD4680BD94B40008C402002098B500AF78
:1026F00000F060FB00F054F800F00CF900F08CF8EA
:1027000000F0B8F8FFF70AFFFFF7D1FEFFF752FD20
:102710004FF47A7000F0B0FB1E4804F0F9FC1E4B39
:102720001B78DBB2032B25D801A252F823F000BF9F
:102730007527000841270008592700086727000867
:10274000FFF7ECF904461548FFF7F6FC0346194677
:102750002046FFF761FF0DE0FFF714F90346184626
:10276000FFF790FF06E0FEF719FE03461846FFF755
:10277000A5FF00BF4FF47A7000F07EFBFFF797FED5
:10278000054B1B78DBB2032BC9D9034B00221A700F
:10279000C5E700BF78020020C00200202060774912
:1027A00080B590B000AF07F1180328220021184629
:1027B00005F090F83B1D00221A605A609A60DA60BA
:1027C0001A610223BB610123BB621023FB62002359
:1027D0007B6307F11803184604F044F80346002B06
:1027E00001D000F007F90F237B600023BB600023BA
:1027F000FB604FF480633B6100237B613B1D002144
:10280000184604F0B1FA0346002B01D000F0F2F8AC
:1028100000BF4037BD4680BD80B500AF124B134AA4
:102820001A60114B124A5A600F4B00229A600E4BED
:102830000022DA600C4B4FF480421A610A4B0022EE
:102840005A61094B00229A61074B0022DA61064B5C
:1028500000221A62044800F077FE0346002B01D0E4
:1028600000F0C8F800BF80BD2402002000580040DE
:10287000A086010080B586B000AF07F108030022F2
:102880001A605A609A60DA603B4600221A605A6009
:102890001E4B1F4A1A601D4B4F225A601B4B0022D1
:1028A0009A601A4B47F23052DA60184B00221A61D4
:1028B000164B00225A61154B00229A61134804F00E
:1028C000D7FB0346002B01D000F094F84FF480535F
:1028D000BB6007F1080319460C4804F073FD03467A
:1028E000002B01D000F086F800233B6000237B60C2
:1028F0003B461946054804F045FF0346002B01D02E
:1029000000F078F800BF1837BD4680BD780200207F
:10291000002C014080B588B000AF07F11003002201
:102920001A605A609A60DA602E4B9B692D4A43F018
:10293000100393612B4B9B6903F01003FB60FB6852
:10294000284B9B69274A43F004039361254B9B69FD
:1029500003F00403BB60BB68224B9B69214A43F030
:10296000080393611F4B9B6903F008037B607B683E
:1029700000224FF400511C4800F0CDFD00224FF41E
:10298000FC711A4800F0C7FD4FF400533B6101236E
:102990007B610023BB610223FB6107F11003194631
:1029A000114800F01DFC02233B6100237B610123E1
:1029B000BB6107F1100319460D4800F011FC4FF4FC
:1029C000FC733B6101237B610023BB610223FB613C
:1029D00007F110031946054800F002FC00BF20373C
:1029E000BD4680BD0010024000100140000C0140B7
:1029F0000008014080B400AF72B600BFFEE70000DF
:102A000080B485B000AF154B9B69144A43F00103B5
:102A10009361124B9B6903F00103BB60BB680F4BD2
:102A2000DB690E4A43F08053D3610C4BDB6903F042
:102A300080537B607B680A4B5B68FB60FB6823F01C
:102A4000E063FB60FB6843F00073FB60044AFB68D3
:102A5000536000BF1437BD4680BC70470010024071
:102A60000000014080B588B000AF786007F1100326
:102A700000221A605A609A60DA607B681B681E4AFE
:102A8000934234D11D4B9B691C4A43F00803936168
:102A90001A4B9B6903F00803FB60FB684FF440632B
:102AA0003B6112237B610323FB6107F1100319468D
:102AB000134800F095FB114BDB69104A43F4800387
:102AC000D3610E4BDB6903F48003BB60BB6800225B
:102AD0000021212000F0CBFA212000F0E4FA0022AE
:102AE0000021222000F0C3FA222000F0DCFA00BF0F
:102AF0002037BD4680BD00BF005800400010024096
:102B0000000C014080B584B000AF78607B681B6822
:102B10000D4A934213D10D4B9B690C4A43F4006359
:102B200093610A4B9B6903F40063FB60FB6800221E
:102B30000021192000F09BFA192000F0B4FA00BF20
:102B40001037BD4680BD00BF002C01400010024080
:102B500080B400AFFEE780B400AFFEE780B400AF02
:102B6000FEE780B400AFFEE780B400AFFEE780B4BC
:102B700000AF00BFBD4680BC704780B400AF00BF4F
:102B8000BD4680BC704780B400AF00BFBD4680BC6E
:102B9000704780B500AF00F053F900BF80BD000062
:102BA00080B500AF024804F005FB00BF80BD00BF48
:102BB0007802002080B500AF024801F0C9FC00BFD8
:102BC00080BD00BF2402002080B500AF024801F0A4
:102BD00030FE00BF80BD00BF2402002080B400AFE3
:102BE00001231846BD4680BC704780B582B000AF57
:102BF0007860396004F036FE034616221A604FF002
:102C0000FF3318460837BD4680BD80B582B000AF9F
:102C100078604FF0FF317868FFF7E7FFFEE780B597
:102C200086B000AFF860B9607A6000237B610AE08B
:102C3000AFF300800146BB685A1CBA60CAB21A7072
:102C40007B6901337B617A697B689A42F0DB7B6840
:102C500018461837BD4680BD80B586B000AFF86015
:102C6000B9607A6000237B6109E0BB685A1CBA60D6
:102C70001B781846AFF300807B6901337B617A696A
:102C80007B689A42F1DB7B6818461837BD4680BDE9
:102C900080B483B000AF78604FF0FF3318460C3734
:102CA000BD4680BC704780B483B000AF78603960A7
:102CB0003B684FF400525A60002318460C37BD465B
:102CC00080BC704780B483B000AF786001231846A1
:102CD0000C37BD4680BC704780B485B000AFF8604B
:102CE000B9607A60002318461437BD4680BC70472F
:102CF00080B586B000AF7860144A154BD31A7B615B
:102D00007B693B61134B1B68002B02D1114B124AAC
:102D10001A60104B1A687B6813443A699A4207D2CA
:102D200004F0A0FD03460C221A604FF0FF3309E0C7
:102D3000084B1B68FB60074B1A687B681344054A05
:102D40001360FB6818461837BD4680BD0050002050
:102D500000040000D8020020F002002080B400AF80
:102D600000BFBD4680BC70470C480D490D4A00238A
:102D700002E0D458C4500433C4188C42F9D30A4A30
:102D80000A4C002301E013600432A242FBD3FFF798
:102D9000E5FF04F06DFDFFF7A9FC7047000000207F
:102DA000DC010020E8B80008DC010020F00200206F
:102DB000FEE7000080B500AF084B1B68074A43F0F0
:102DC00010031360032000F047F90F2000F008F80B
:102DD000FFF716FE0023184680BD00BF002002400A
:102DE00080B582B000AF7860124B1A68124B1B7826
:102DF00019464FF47A73B3FBF1F3B2FBF3F31846C1
:102E000000F05FF90346002B01D001230EE07B6840
:102E10000F2B0AD8002279684FF0FF3000F027F915
:102E2000064A7B681360002300E001231846083738
:102E3000BD4680BD000000200800002004000020E6
:102E400080B400AF054B1B781A46054B1B68134432
:102E5000034A136000BFBD4680BC704708000020D5
:102E6000DC02002080B400AF024B1B681846BD4650
:102E700080BC7047DC02002080B584B000AF786071
:102E8000FFF7F0FFB8607B68FB60FB68B3F1FF3FC2
:102E900005D00A4B1B781A46FB681344FB6000BF41
:102EA000FFF7E0FF0246BB68D31AFA689A42F7D8E8
:102EB00000BF00BF1037BD4680BD00BF0800002026
:102EC00080B485B000AF78607B6803F00703FB60D7
:102ED0000C4BDB68BB60BA684FF6FF031340BB6066
:102EE000FB681A02BB68134343F0BF6343F400332B
:102EF000BB60044ABB68D36000BF1437BD4680BCCA
:102F0000704700BF00ED00E080B400AF044BDB6809
:102F10001B0A03F007031846BD4680BC704700BF7C
:102F200000ED00E080B483B000AF0346FB7197F979
:102F30000730002B0BDBFB7903F01F02064997F9E2
:102F400007305B09012000FA02F241F8232000BF9C
:102F50000C37BD4680BC704700E100E080B483B010
:102F600000AF03463960FB7197F90730002B0ADB8D
:102F70003B68DAB20C4997F907301201D2B20B4420
:102F800083F800230AE03B68DAB20849FB7903F0D2
:102F90000F03043B1201D2B20B441A7600BF0C3768
:102FA000BD4680BC704700BF00E100E000ED00E0DE
:102FB00080B489B000AFF860B9607A60FB6803F054
:102FC0000703FB61FB69C3F10703042B28BF04233C
:102FD000BB61FB690433062B02D9FB69033B00E0AC
:102FE00000237B614FF0FF32BB6902FA03F3DA433F
:102FF000BB681A407B699A404FF0FF317B6901FA48
:1030000003F3D9437B680B40134318462437BD466E
:1030100080BC704780B582B000AF78607B68013BB0
:10302000B3F1807F01D301230FE00A4A7B68013BA3
:1030300053600F214FF0FF30FFF790FF054B002248
:103040009A60044B07221A60002318460837BD46D1
:1030500080BD00BF10E000E080B582B000AF7860B6
:103060007868FFF72DFF00BF0837BD4680BD80B5EB
:1030700086B000AF0346B9607A60FB7300237B61C2
:10308000FFF742FF78617A68B9687869FFF790FFC7
:10309000024697F90F3011461846FFF75FFF00BF51
:1030A0001837BD4680BD80B582B000AF0346FB71C6
:1030B00097F907301846FFF735FF00BF0837BD46C0
:1030C00080BD80B582B000AF78607868FFF7A2FF5E
:1030D000034618460837BD4680BD000080B584B061
:1030E00000AF78600023FB737B6893F82130022BDC
:1030F00005D07B6804229A630123FB7351E07B684F
:103100001B681A687B681B6822F00E021A607B68D5
:103110001B681A687B681B6822F001021A607B68D2
:103120001B68224A934229D07B681B68204A93423D
:1031300022D07B681B681F4A93421AD07B681B68A9
:103140001D4A934212D07B681B681C4A93420AD0E6
:103150007B681B681A4A934202D14FF480130EE039
:103160004FF080730BE04FF4803308E04FF480534E
:1031700005E04FF4807302E0102300E00123114AC0
:1031800053607B68012283F821207B68002283F84A
:1031900020207B685B6B002B03D07B685B6B7868BF
:1031A0009847FB7B18461037BD4680BD080002409B
:1031B0001C0002403000024044000240580002401F
:1031C0006C0002400000024080B483B000AF786021
:1031D0007B6893F8213018460C37BD4680BC704799
:1031E00080B48BB000AF7860396000237B6200232D
:1031F0003B6269E101227B6A02FA03F3FB613B68EF
:103200001B68FA691340BB61BA69FB699A4240F0D6
:1032100058813B685B689A4A93425ED0984A9342D1
:1032200075D8984A934258D0964A93426FD8964A96
:10323000934252D0944A934269D8944A93424CD0D4
:10324000924A934263D8924A934246D0904A93421C
:103250005DD8122B2AD8122B59D801A252F823F08C
:10326000DB320008B5320008C73200080933000815
:103270000F3300080F3300080F3300080F33000826
:103280000F3300080F3300080F3300080F33000816
:103290000F3300080F3300080F3300080F33000806
:1032A0000F330008BD320008D1320008794A93423A
:1032B00013D02CE03B68DB683B6229E03B68DB68AD
:1032C00004333B6224E03B68DB6808333B621FE069
:1032D0003B68DB680C333B621AE03B689B68002B61
:1032E00002D104233B6213E03B689B68012B05D1AC
:1032F00008233B627B68FA691A6109E008233B6294
:103300007B68FA695A6103E000233B6200E000BF7A
:10331000BB69FF2B01D87B6801E07B6804337B61CC
:10332000BB69FF2B02D87B6A9B0002E07B6A083BEB
:103330009B003B617B691A680F213B6901FA03F32B
:10334000DB431A40396A3B6901FA03F31A437B698C
:103350001A603B685B6803F08053002B00F0B1807B
:103360004D4B9B694C4A43F0010393614A4B9B6967
:1033700003F00103BB60BB68484A7B6A9B080233C9
:1033800052F82330FB607B6A03F003039B000F229B
:1033900002FA03F3DB43FA681340FB607B68404AA0
:1033A000934213D07B683F4A93420DD07B683E4ADC
:1033B000934207D07B683D4A934201D1032306E044
:1033C000042304E0022302E0012300E000237A6AE0
:1033D00002F0030292009340FA681343FB602F4906
:1033E0007B6A9B080233FA6841F823203B685B68DC
:1033F00003F48033002B06D02D4B1A682C49BB698F
:1034000013430B6006E02A4B1A68BB69DB4328496B
:1034100013400B603B685B6803F40033002B06D05D
:10342000234B5A682249BB6913434B6006E0204B8B
:103430005A68BB69DB431E4913404B603B685B68BD
:1034400003F48013002B06D0194B9A681849BB6906
:1034500013438B6006E0164B9A68BB69DB43144943
:1034600013408B603B685B6803F40013002B21D092
:103470000F4BDA680E49BB691343CB6021E000BFF4
:103480000000321000003110000022100000211056
:103490000000121000001110001002400000014056
:1034A00000080140000C01400010014000140140E0
:1034B000000401400B4BDA68BB69DB430949134048
:1034C000CB607B6A01337B623B681A687B6A22FAB5
:1034D00003F3002B7FF48EAE00BF00BF2C37BD4638
:1034E00080BC70470004014080B485B000AF7860B4
:1034F0000B467B807B689A687B881340002B02D048
:103500000123FB7301E00023FB73FB7B1846143798
:10351000BD4680BC704780B483B000AF78600B4676
:103520007B8013467B707B78002B03D07A887B6886
:103530001A6103E07B881A047B681A6100BF0C37AC
:10354000BD4680BC7047000080B584B000AF786095
:103550007B68002B01D101232BE17B6893F83D3080
:10356000DBB2002B06D17B68002283F83C20786810
:10357000FFF778FA7B68242283F83D207B681B687C
:103580001A687B681B6822F001021A607B681B685E
:103590001A687B681B6842F400421A607B681B68EB
:1035A0001A687B681B6822F400421A6003F02EFD43
:1035B000F8607B685B68814A934207D8FB68804A61
:1035C000934294BF01230023DBB206E0FB687D4AEF
:1035D000934294BF01230023DBB2002B01D00123CF
:1035E000E7E0FB68784AA2FB03239B0CBB607B6887
:1035F0001B685B6823F03F017B681B68BA680A435D
:103600005A607B681B681B6A23F03F017B685B681C
:103610006A4A934202D8BB68013309E0BB684FF4A1
:10362000967202FB03F3694AA2FB03239B09013351
:103630007A6812680B4313627B681B68DB6923F4AA
:103640004F4222F0FF027B685B685C498B4219D8CD
:10365000FB68591E7B685B685B00B1FBF3F3591C88
:1036600040F6FC730B40002B0AD0FB68591E7B68A8
:103670005B685B00B1FBF3F30133C3F30B0351E071
:1036800004234FE07B689B68002B11D1FB68581E18
:103690007B6859680B465B000B44B0FBF3F30133C6
:1036A000C3F30B03002B0CBF01230023DBB212E09A
:1036B000FB68581E7B6859680B469B000B449900B9
:1036C0000B44B0FBF3F30133C3F30B03002B0CBF2C
:1036D00001230023DBB2002B01D0012322E07B6811
:1036E0009B68002B0ED1FB68581E7B6859680B46FF
:1036F0005B000B44B0FBF3F30133C3F30B0343F460
:1037000000430FE0FB68581E7B6859680B469B001E
:103710000B4499000B44B0FBF3F30133C3F30B03E9
:1037200043F44043796809681343CB617B681B68A5
:103730001B6823F0C0017B68DA697B681B6A1A4347
:103740007B681B680A431A607B681B689B6823F4CC
:10375000034323F0FF037A6811697A68D268114342
:103760007A6812680B4393607B681B68DB6823F000
:10377000FF017B685A697B689B691A437B681B68F9
:103780000A43DA607B681B681A687B681B6842F032
:1037900001021A607B6800221A647B68202283F889
:1037A0003D207B6800221A637B68002283F83E205C
:1037B000002318461037BD4680BD00BFA08601001B
:1037C0007F841E00FF083D0083DE1B43D34D621043
:1037D00080B588B002AFF8607A601A460B467B81EC
:1037E00013463B81FFF73EFB7861FB6893F83D3061
:1037F000DBB2202B40F0E0807B690093192301228B
:103800007049F86802F006FE0346002B01D002233F
:10381000D3E0FB6893F83C30012B01D10223CCE0CC
:10382000FB68012283F83C20FB681B681B6803F0DF
:103830000103012B07D0FB681B681A68FB681B6833
:1038400042F001021A60FB681B681A68FB681B687B
:1038500022F400621A60FB68212283F83D20FB6895
:10386000102283F83E20FB6800221A64FB687A6805
:103870005A62FB683A895A85FB685B8D9AB2FB688D
:103880001A85FB68504ADA6279897B693A6AF86876
:1038900002F04AFA0346002B01D001238DE00023F9
:1038A0003B61FB681B685B693B61FB681B689B694C
:1038B0003B613B6966E07A69396AF86802F080FE2C
:1038C0000346002B0DD0FB681B6C042B07D1FB6853
:1038D0001B681A68FB681B6842F400721A600123B7
:1038E0006BE0FB685B6A1A78FB681B681A61FB680F
:1038F0005B6A5A1CFB685A62FB685B8D9BB2013B9A
:103900009AB2FB685A85FB681B8D013B9AB2FB6833
:103910001A85FB681B685B6903F00403042B1BD149
:10392000FB681B8D002B17D0FB685B6A1A78FB685D
:103930001B681A61FB685B6A5A1CFB685A62FB6869
:103940005B8D9BB2013B9AB2FB685A85FB681B8D6D
:10395000013B9AB2FB681A857A69396AF86802F005
:1039600070FE0346002B0DD0FB681B6C042B07D1A7
:10397000FB681B681A68FB681B6842F400721A60D7
:1039800001231AE0FB681B8D002B94D1FB681B6898
:103990001A68FB681B6842F400721A60FB682022F8
:1039A00083F83D20FB68002283F83E20FB6800225C
:1039B00083F83C20002300E0022318461837BD4658
:1039C00080BD00BF020010000000FFFF80B58CB07A
:1039D00002AFF8607A601A460B467B8113463B8142
:1039E00000233B62FFF73EFA7862FB6893F83D30B4
:1039F000DBB2202B40F03F827B6A00931923012227
:103A00007F49F86802F006FD0346002B01D002232F
:103A100032E2FB6893F83C30012B01D102232BE208
:103A2000FB68012283F83C20FB681B681B6803F0DD
:103A30000103012B07D0FB681B681A68FB681B6831
:103A400042F001021A60FB681B681A68FB681B6879
:103A500022F400621A60FB68222283F83D20FB6892
:103A6000102283F83E20FB6800221A64FB687A6803
:103A70005A62FB683A895A85FB685B8D9AB2FB688B
:103A80001A85FB685F4ADA6279897B6A3A6BF86863
:103A900002F0CCF90346002B01D00123ECE1FB68D6
:103AA0001B8D002B13D10023FB61FB681B685B6936
:103AB000FB61FB681B689B69FB61FB69FB681B681A
:103AC0001A68FB681B6842F400721A60C0E1FB6868
:103AD0001B8D012B1ED1FB681B681A68FB681B68D5
:103AE00022F480621A6072B600BF0023BB61FB68DB
:103AF0001B685B69BB61FB681B689B69BB61BB6939
:103B0000FB681B681A68FB681B6842F400721A6045
:103B100062B635E0FB681B8D022B1ED1FB681B686B
:103B20001A68FB681B6842F400621A6072B600BF34
:103B300000237B61FB681B685B697B61FB681B681A
:103B40009B697B617B69FB681B681A68FB681B6863
:103B500022F480621A6062B612E0FB681B681A6881
:103B6000FB681B6842F480621A6000233B61FB68BB
:103B70001B685B693B61FB681B689B693B613B6938
:103B800066E1FB681B8D032B00F21F81FB681B8D18
:103B9000012B23D17A6A396BF86802F0C5FD034620
:103BA000002B01D0012367E1FB681B681A69FB68E1
:103BB0005B6AD2B21A70FB685B6A5A1CFB685A6275
:103BC000FB681B8D013B9AB2FB681A85FB685B8D15
:103BD0009BB2013B9AB2FB685A8539E1FB681B8DA9
:103BE000022B52D17B6A00933B6B00220649F86896
:103BF00002F010FC0346002B08D001233CE100BF7B
:103C0000020010000000FFFF0400010072B600BFB8
:103C1000FB681B681A68FB681B6842F400721A6034
:103C2000FB681B681A69FB685B6AD2B21A70FB6892
:103C30005B6A5A1CFB685A62FB681B8D013B9AB297
:103C4000FB681A85FB685B8D9BB2013B9AB2FB68EF
:103C50005A8562B600BFFB681B681A69FB685B6A1D
:103C6000D2B21A70FB685B6A5A1CFB685A62FB6826
:103C70001B8D013B9AB2FB681A85FB685B8D9BB27A
:103C8000013B9AB2FB685A85E2E07B6A00933B6B8A
:103C900000227B49F86802F0BDFB0346002B01D0EF
:103CA0000123E9E0FB681B681A68FB681B6822F4C3
:103CB00080621A6072B600BFFB681B681A69FB68F5
:103CC0005B6AD2B21A70FB685B6A5A1CFB685A6264
:103CD000FB681B8D013B9AB2FB681A85FB685B8D04
:103CE0009BB2013B9AB2FB685A85664B1B68DB08A6
:103CF000654AA2FB03231A0A13469B001344DA0009
:103D0000D31A3B623B6A013B3B623B6A002B18D1F2
:103D1000FB6800221A63FB68202283F83D20FB68C1
:103D2000002283F83E20FB681B6C43F02002FB68F6
:103D30001A6462B600BFFB68002283F83C200123AE
:103D40009AE0FB681B685B6903F00403042BD9D17C
:103D5000FB681B681A68FB681B6842F400721A60F3
:103D6000FB681B681A69FB685B6AD2B21A70FB6851
:103D70005B6A5A1CFB685A62FB681B8D013B9AB256
:103D8000FB681A85FB685B8D9BB2013B9AB2FB68AE
:103D90005A8562B600BFFB681B681A69FB685B6ADC
:103DA000D2B21A70FB685B6A5A1CFB685A62FB68E5
:103DB0001B8D013B9AB2FB681A85FB685B8D9BB239
:103DC000013B9AB2FB685A8542E07A6A396BF8681F
:103DD00002F0AAFC0346002B01D001234CE0FB6853
:103DE0001B681A69FB685B6AD2B21A70FB685B6A6F
:103DF0005A1CFB685A62FB681B8D013B9AB2FB6838
:103E00001A85FB685B8D9BB2013B9AB2FB685A85B1
:103E1000FB681B685B6903F00403042B18D1FB6883
:103E20001B681A69FB685B6AD2B21A70FB685B6A2E
:103E30005A1CFB685A62FB681B8D013B9AB2FB68F7
:103E40001A85FB685B8D9BB2013B9AB2FB685A8571
:103E5000FB681B8D002B7FF494AEFB68202283F857
:103E60003D20FB68002283F83E20FB68002283F897
:103E70003C20002300E0022318462837BD4680BDC1
:103E8000040001000000002089B5F81480B588B056
:103E900002AFF860084611461A4603467B810B467E
:103EA0003B811346FB80FEF7DDFF7861FB6893F8EA
:103EB0003D30DBB2202B40F0D9807B690093192381
:103EC00001226D49F86802F0A5FA0346002B01D0E3
:103ED0000223CCE0FB6893F83C30012B01D1022394
:103EE000C5E0FB68012283F83C20FB681B681B6867
:103EF00003F00103012B07D0FB681B681A68FB68FD
:103F00001B6842F001021A60FB681B681A68FB68B4
:103F10001B6822F400621A60FB68212283F83D20AE
:103F2000FB68402283F83E20FB6800221A64FB688D
:103F30003A6A5A62FB68BA8C5A85FB685B8D9AB202
:103F4000FB681A85FB684D4ADA62F8883A897989F4
:103F50007B690193BB6A00930346F86802F034F86A
:103F60000346002B52D0012381E07A69B96AF868D0
:103F700002F026FB0346002B0DD0FB681B6C042BC4
:103F800007D1FB681B681A68FB681B6842F4007263
:103F90001A6001236BE0FB685B6A1A78FB681B6898
:103FA0001A61FB685B6A5A1CFB685A62FB681B8DCE
:103FB000013B9AB2FB681A85FB685B8D9BB2013BA3
:103FC0009AB2FB685A85FB681B685B6903F00403BF
:103FD000042B1BD1FB681B8D002B17D0FB685B6A81
:103FE0001A78FB681B681A61FB685B6A5A1CFB68DD
:103FF0005A62FB681B8D013B9AB2FB681A85FB680D
:104000005B8D9BB2013B9AB2FB685A85FB681B8DA6
:10401000002BAAD17A69B96AF86802F012FB03464C
:10402000002B0DD0FB681B6C042B07D1FB681B68B1
:104030001A68FB681B6842F400721A60012316E0DC
:10404000FB681B681A68FB681B6842F400721A6000
:10405000FB68202283F83D20FB68002283F83E2085
:10406000FB68002283F83C20002300E0022318466E
:104070001837BD4680BD00BF020010000000FFFFE2
:1040800080B58CB002AFF860084611461A46034668
:104090007B810B463B811346FB8000233B62FEF78E
:1040A000E1FE7862FB6893F83D30DBB2202B40F0F4
:1040B00044827B6A0093192301228249F86802F046
:1040C000A9F90346002B01D0022337E2FB6893F8DD
:1040D0003C30012B01D1022330E2FB68012283F83E
:1040E0003C20FB681B681B6803F00103012B07D011
:1040F000FB681B681A68FB681B6842F001021A60C3
:10410000FB681B681A68FB681B6822F400621A606F
:10411000FB68222283F83D20FB68402283F83E2082
:10412000FB6800221A64FB683A6B5A62FB68BA8E1D
:104130005A85FB685B8D9AB2FB681A85FB68624AF8
:10414000DA62F8883A8979897B6A0193BB6B0093BC
:104150000346F86801F0CEFF0346002B01D001238F
:10416000ECE1FB681B8D002B13D10023FB61FB6886
:104170001B685B69FB61FB681B689B69FB61FB69F2
:10418000FB681B681A68FB681B6842F400721A60BF
:10419000C0E1FB681B8D012B1ED1FB681B681A68F0
:1041A000FB681B6822F480621A6072B600BF0023AD
:1041B000BB61FB681B685B69BB61FB681B689B6933
:1041C000BB61BB69FB681B681A68FB681B6842F42B
:1041D00000721A6062B635E0FB681B8D022B1ED19F
:1041E000FB681B681A68FB681B6842F400621A606F
:1041F00072B600BF00237B61FB681B685B697B6153
:10420000FB681B689B697B617B69FB681B681A689C
:10421000FB681B6822F480621A6062B612E0FB68D9
:104220001B681A68FB681B6842F480621A600023EE
:104230003B61FB681B685B693B61FB681B689B69B2
:104240003B613B6966E1FB681B8D032B00F21F811C
:10425000FB681B8D012B23D17A6AB96BF86802F0D9
:1042600063FA0346002B01D0012367E1FB681B685A
:104270001A69FB685B6AD2B21A70FB685B6A5A1CE7
:10428000FB685A62FB681B8D013B9AB2FB681A857A
:10429000FB685B8D9BB2013B9AB2FB685A8539E1A2
:1042A000FB681B8D022B52D17B6A0093BB6B0022F3
:1042B0000649F86802F0AEF80346002B08D0012347
:1042C0003CE100BF020010000000FFFF04000100FD
:1042D00072B600BFFB681B681A68FB681B6842F473
:1042E00000721A60FB681B681A69FB685B6AD2B2CD
:1042F0001A70FB685B6A5A1CFB685A62FB681B8D6C
:10430000013B9AB2FB681A85FB685B8D9BB2013B4F
:104310009AB2FB685A8562B600BFFB681B681A69CF
:10432000FB685B6AD2B21A70FB685B6A5A1CFB6856
:104330005A62FB681B8D013B9AB2FB681A85FB68C9
:104340005B8D9BB2013B9AB2FB685A85E2E07B6AC7
:104350000093BB6B00227B49F86802F05BF80346D0
:10436000002B01D00123E9E0FB681B681A68FB6899
:104370001B6822F480621A6072B600BFFB681B687B
:104380001A69FB685B6AD2B21A70FB685B6A5A1CD6
:10439000FB685A62FB681B8D013B9AB2FB681A8569
:1043A000FB685B8D9BB2013B9AB2FB685A85664BFA
:1043B0001B68DB08654AA2FB03231A0A13469B000D
:1043C0001344DA00D31A3B623B6A013B3B623B6A0F
:1043D000002B18D1FB6800221A63FB68202283F8A7
:1043E0003D20FB68002283F83E20FB681B6C43F0F5
:1043F0002002FB681A6462B600BFFB68002283F8E3
:104400003C2001239AE0FB681B685B6903F004030E
:10441000042BD9D1FB681B681A68FB681B6842F43F
:1044200000721A60FB681B681A69FB685B6AD2B28B
:104430001A70FB685B6A5A1CFB685A62FB681B8D2A
:10444000013B9AB2FB681A85FB685B8D9BB2013B0E
:104450009AB2FB685A8562B600BFFB681B681A698E
:10446000FB685B6AD2B21A70FB685B6A5A1CFB6815
:104470005A62FB681B8D013B9AB2FB681A85FB6888
:104480005B8D9BB2013B9AB2FB685A8542E07A6A27
:10449000B96BF86802F048F90346002B01D00123FC
:1044A0004CE0FB681B681A69FB685B6AD2B21A7041
:1044B000FB685B6A5A1CFB685A62FB681B8D013BF8
:1044C0009AB2FB681A85FB685B8D9BB2013B9AB27E
:1044D000FB685A85FB681B685B6903F00403042BC7
:1044E00018D1FB681B681A69FB685B6AD2B21A7044
:1044F000FB685B6A5A1CFB685A62FB681B8D013BB8
:104500009AB2FB681A85FB685B8D9BB2013B9AB23D
:10451000FB685A85FB681B8D002B7FF494AEFB680B
:10452000202283F83D20FB68002283F83E20FB68B0
:10453000002283F83C20002300E00223184628379D
:10454000BD4680BD040001000000002089B5F814BC
:1045500080B588B000AF78600023BB617B681B68C2
:104560005B687B617B68DB6A3B617B6893F83E300C
:10457000FB737B6893F83D30BB73FB7B102B03D040
:10458000FB7B402B40F0C1807B681B689B69BB6153
:104590007B681B685B69FB61FB6903F00103002B0F
:1045A0000DD13B69B3F52A0F03D03B69B3F12A4F14
:1045B00001D1012300E00023012B00F03281FB69CF
:1045C00003F00103002B0CD07B695B0A03F00103AD
:1045D000002B06D0786802F02BF9786800F082FD95
:1045E00092E0FB69DB0803F00103002B09D07B6933
:1045F0005B0A03F00103002B03D0786800F0F7FD9D
:1046000082E0FB695B0803F00103002B09D07B69A2
:104610005B0A03F00103002B03D0786800F010FE62
:1046200072E0BB699B0803F00103002B3BD07B6861
:104630001B685B6803F40063B3F5006F00F0F38060
:10464000FB69DB0903F00103002B0FD07B699B0A98
:1046500003F00103002B09D0FB699B0803F0010361
:10466000002B03D1786800F0FCF94DE0FB699B0852
:1046700003F00103002B00F0D6807B695B0A03F096
:104680000103002B00F0CF80BB7B212B03D1786886
:1046900000F083FAC7E0FB7B402B40F0C4807868D1
:1046A00000F0F1FABFE07B681B685B6803F400630D
:1046B000B3F5006F00F0B780FB699B0903F00103BD
:1046C000002B0FD07B699B0A03F00103002B09D05C
:1046D000FB699B0803F00103002B03D1786800F00D
:1046E00066FB11E0FB699B0803F00103002B00F05F
:1046F0009A807B695B0A03F00103002B00F0938032
:10470000786800F005FC8EE08DE07B681B6C002B68
:1047100004D07B681B685B69FB6107E07B681B68F2
:104720009B69BB617B681B685B69FB61FB695B081C
:1047300003F00103002B12D07B695B0A03F0010335
:10474000002B0CD07B681B6C002B03D07B681B6894
:104750009B69BB61B969786800F0C9FF66E0FB69D5
:104760001B0903F00103002B09D07B695B0A03F0EE
:104770000103002B03D0786801F004F856E0BB7BFE
:10478000212B02D0BB7B292B25D1FB69DB0903F050
:104790000103002B0FD07B699B0A03F00103002B60
:1047A00009D0FB699B0803F00103002B03D1786853
:1047B00000F0E1FE39E0FB699B0803F00103002BE8
:1047C00033D07B695B0A03F00103002B2DD078689E
:1047D00000F00EFF29E0FB699B0903F00103002BA9
:1047E0000FD07B699B0A03F00103002B09D0FB6902
:1047F0009B0803F00103002B03D1786800F018FF39
:1048000014E0FB699B0803F00103002B0ED07B69C9
:104810005B0A03F00103002B08D0786800F046FF24
:1048200004E000BF02E000BF00E000BF2037BD464B
:1048300080BD80B58AB000AF78607B681B685B691B
:104840003B627B681B685B68FB6100237B627B6863
:1048500093F83E30FB763B6A1B0A03F00103002B02
:1048600016D0FB691B0A03F00103002B10D07B6AF2
:1048700043F001037B627B681B686FF480725A61AE
:104880007B681B681A687B681B6842F400421A60E8
:104890003B6A5B0A03F00103002B0ED0FB691B0A85
:1048A00003F00103002B08D07B6A43F002037B6214
:1048B0007B681B686FF400725A613B6A9B0A03F0C5
:1048C0000103002B3FD0FB691B0A03F00103002BFF
:1048D00039D0FB7EBB767B685B8D9BB27B617B684E
:1048E00093F83D30FB747B681B6BFB60BB7E202B19
:1048F00012D17B69002B0FD1FB7C212B08D0FB7CD4
:10490000292B05D0FB7C282B06D1FB68212B03D15A
:10491000786801F067F816E07B681B686FF48062C6
:104920005A617B6A43F004037B62FB7E102B02D04A
:10493000FB7E402B07D17B681B681A687B681B686D
:1049400042F400721A603B6ADB0A03F00103002B99
:104950000ED0FB691B0A03F00103002B08D07B6A11
:1049600043F008037B627B681B686FF400625A6146
:104970007B6A002B08D07B681A6C7B6A1A437B68C1
:104980001A64786801F09EF800BF2837BD4680BDE4
:1049900080B483B000AF786000BF0C37BD4680BCE8
:1049A000704780B483B000AF786000BF0C37BD465D
:1049B00080BC704780B483B000AF786000BF0C3714
:1049C000BD4680BC704780B483B000AF786000BF44
:1049D0000C37BD4680BC704780B483B000AF7860B0
:1049E0000B46FB7013463B8000BF0C37BD4680BCB6
:1049F000704780B483B000AF786000BF0C37BD460D
:104A000080BC704780B483B000AF786000BF0C37C3
:104A1000BD4680BC704780B483B000AF786000BFF3
:104A20000C37BD4680BC704780B483B000AF78605F
:104A300000BF0C37BD4680BC704780B483B000AF68
:104A4000786000BF0C37BD4680BC704780B483B02F
:104A500000AF78607B681B6C18460C37BD4680BC85
:104A6000704780B584B000AF78607B6893F83D30C4
:104A7000FB737B6893F83E30BB737B68DB6ABB607B
:104A80007B681B8D002B50D1FB7B212B4DD1BB684C
:104A9000082B1DD0BB68202B1AD0BB6813F5803FB4
:104AA00016D07B681B685A687B681B6822F4E0623A
:104AB0005A607B6811221A637B68002283F83E20CB
:104AC0007B68202283F83D207868FFF761FF60E073
:104AD0007B681B685A687B681B6822F4E0625A6036
:104AE0007B681B681A687B681B6842F400721A6056
:104AF0007B6800221A637B68202283F83D207B6854
:104B000093F83E30DBB2402B07D17B68002283F85C
:104B10003E207868FFF776FF3BE07B68002283F851
:104B20003E207868FFF734FF33E0FB7B212B05D074
:104B3000BB7B402B2DD1FB7B222B2AD17B685B8D4D
:104B40009BB2002B08D17B681B685A687B681B6886
:104B500022F480625A601CE07B6893F83E30DBB23E
:104B6000402B03D1786800F08EF812E07B685B6A16
:104B70001A787B681B681A617B685B6A5A1C7B68C1
:104B80005A627B685B8D9BB2013B9AB27B685A8507
:104B9000FFE700BF1037BD4680BD80B584B000AFD1
:104BA00078607B68DB6AFB607B6893F83D30DBB242
:104BB000212B64D17B685B8D9BB2002B12D07B686C
:104BC0005B6A1A787B681B681A617B685B6A5A1C8F
:104BD0007B685A627B685B8D9BB2013B9AB27B68B3
:104BE0005A854CE0FB68082B1DD0FB68202B1AD09F
:104BF000FB6813F5803F16D07B681B685A687B689A
:104C00001B6822F4E0625A607B6811221A637B6899
:104C1000002283F83E207B68202283F83D207868BC
:104C2000FFF7B6FE2BE07B681B685A687B681B6841
:104C300022F4E0625A607B681B681A687B681B6814
:104C400042F400721A607B6800221A637B6820229B
:104C500083F83D207B6893F83E30DBB2402B07D1D0
:104C60007B68002283F83E207868FFF7CBFE06E0E1
:104C70007B68002283F83E207868FFF789FE00BF3A
:104C80001037BD4680BD80B584B000AF78607B68CA
:104C900093F83D30FB737B681B6D002B1DD17B6847
:104CA000DB6C012B0BD17B689B6CDAB27B681B68D9
:104CB0001A617B681B6D9A1C7B681A6573E07B68C0
:104CC0009B6C9BB21B12DAB27B681B681A617B6813
:104CD0001B6D5A1C7B681A6565E07B681B6D012B98
:104CE0000BD17B689B6CDAB27B681B681A617B68AE
:104CF0001B6D5A1C7B681A6555E07B681B6D022B87
:104D000051D1FB7B222B0DD17B681B681A687B6815
:104D10001B6842F480721A607B681B6D5A1C7B68AA
:104D20001A6540E07B685B8D9BB2002B15D0FB7B46
:104D3000212B12D17B685B6A1A787B681B681A6129
:104D40007B685B6A5A1C7B685A627B685B8D9BB28E
:104D5000013B9AB27B685A8525E07B685B8D9BB2EC
:104D6000002B20D1FB7B212B1DD17B681B685A684F
:104D70007B681B6822F4E0625A607B681B681A68D3
:104D80007B681B6842F400721A607B6800221A6319
:104D90007B68202283F83D207B68002283F83E2038
:104DA0007868FFF72FFE00BF1037BD4680BD80B585
:104DB00084B000AF78607B6893F83D30DBB2222B83
:104DC00040F0A2807B685B8D9BB2FB60FB68032B8D
:104DD00021D97B681B681A697B685B6AD2B21A703A
:104DE0007B685B6A5A1C7B685A627B685B8D9BB2EE
:104DF000013B9AB27B685A857B685B8D9BB2032B23
:104E000040F082807B681B685A687B681B6822F4CC
:104E100080625A6078E07B68DB6A022B74D0FB68A2
:104E2000012B02D0FB68002B6ED1786801F04AFCA0
:104E30000346002B42D17B681B681A687B681B689D
:104E400022F480621A607B681B685A687B681B6862
:104E500022F4E0625A607B681B681A697B685B6AAF
:104E6000D2B21A707B685B6A5A1C7B685A627B6894
:104E70005B8D9BB2013B9AB27B685A857B6820228E
:104E800083F83D207B6893F83E30DBB2402B0AD19B
:104E90007B68002283F83E207B6800221A637868D2
:104EA000FFF7B9FD30E07B68002283F83E207B6885
:104EB00012221A637868FFF774FD25E07B681B688F
:104EC0005A687B681B6822F4E0625A607B681B6842
:104ED0001A697B685B6AD2B21A707B685B6A5A1C7B
:104EE0007B685A627B685B8D9BB2013B9AB27B68A0
:104EF0005A857B68202283F83D207B68002283F856
:104F00003E207868FFF790FD00BF1037BD4680BD9A
:104F100080B584B000AF78607B68DB6AFB607B683B
:104F20005B8D9BB2042B1BD17B681B685A687B6826
:104F30001B6822F480625A607B681B681A697B6870
:104F40005B6AD2B21A707B685B6A5A1C7B685A62D1
:104F50007B685B8D9BB2013B9AB27B685A85BDE052
:104F60007B685B8D9BB2032B29D17B681B685A68D9
:104F70007B681B6822F480625A60FB68042B0AD0AD
:104F8000FB68022B07D07B681B681A687B681B686C
:104F900022F480621A607B681B681A697B685B6A0E
:104FA000D2B21A707B685B6A5A1C7B685A627B6853
:104FB0005B8D9BB2013B9AB27B685A858EE07B6821
:104FC0005B8D9BB2022B76D1FB68012B02D0FB6874
:104FD000102B08D17B681B681A687B681B6822F459
:104FE00080621A6019E0FB68042B02D0FB68022B78
:104FF00008D17B681B681A687B681B6842F4806272
:105000001A600AE0FB68102B07D07B681B681A68DF
:105010007B681B6842F400721A607B681B681A691F
:105020007B685B6AD2B21A707B685B6A5A1C7B68C9
:105030005A627B685B8D9BB2013B9AB27B685A8552
:105040007B681B681A697B685B6AD2B21A707B68DE
:105050005B6A5A1C7B685A627B685B8D9BB2013B22
:105060009AB27B685A857B681B685A687B681B68A4
:1050700022F440725A607B68202283F83D207B68CE
:1050800093F83E30DBB2402B0AD17B68002283F8D4
:105090003E207B6800221A637868FFF7BCFC1DE0A5
:1050A0007B68002283F83E207B6812221A637868AE
:1050B000FFF777FC12E07B681B681A697B685B6A04
:1050C000D2B21A707B685B6A5A1C7B685A627B6832
:1050D0005B8D9BB2013B9AB27B685A8500BF10374B
:1050E000BD4680BD80B483B000AF78607B6893F824
:1050F0003E30DBB2402B17D17B681B6D002B09D1F2
:105100007B685B6CDBB21A467B681B6802F0FE02B0
:105110001A6167E07B685B6CDBB243F00103DAB2D3
:105120007B681B681A615DE07B681B69B3F5804F83
:1051300033D17B6893F83D30DBB2212B09D17B68FA
:105140005B6CDBB21A467B681B6802F0FE021A61D8
:1051500008E07B685B6CDBB243F00103DAB27B688A
:105160001B681A617B685B6B002B04D07B685B6BF0
:105170009B6A002B08D17B689B6B002B32D07B682D
:105180009B6B9B6A002B2DD07B681B685A687B68E1
:105190001B6842F400625A6024E07B681B6D002BA0
:1051A0000ED17B685B6C9BB2DB11DBB203F00603B4
:1051B000DBB263F00F03DAB27B681B681A6111E09F
:1051C0007B681B6D012B0DD17B685B6C9BB2DB1187
:1051D000DBB203F00603DBB263F00E03DAB27B68E6
:1051E0001B681A6100BF0C37BD4680BC704780B495
:1051F00083B000AF78607B685B6CDAB27B681B6859
:105200001A617B685B6B002B04D07B685B6B9B6ACD
:10521000002B08D17B689B6B002B0CD07B689B6BB1
:105220009B6A002B07D07B681B685A687B681B68E9
:1052300042F400625A6000BF0C37BD4680BC704724
:1052400080B491B000AF78607B6893F83E3087F807
:105250003F307B68DB6ABB637B681B6B7B637B686F
:1052600093F83D30DBB2222B40F074817B681B6DDC
:10527000002B0FD197F83F30402B0BD100233B631D
:105280007B681B685B693B637B681B689B693B634E
:105290003B6B6BE17B681B6D002B1DD17B681B6931
:1052A000B3F5404F18D10023FB627B681B685B6934
:1052B000FB627B681B689B69FB62FB6A7B681B68FF
:1052C0001A687B681B6842F480721A607B681B6DE9
:1052D0005A1C7B681A6549E17B685B8D9BB2002B89
:1052E00013D10023BB627B681B685B69BB627B6870
:1052F0001B689B69BB62BB6A7B681B681A687B681A
:105300001B6842F400721A6020E17B685B8D9BB2DF
:10531000012B40F08A80BB6B13F5803F37D17B684F
:105320001B681A687B681B6822F480621A607B68BD
:105330001B685B6803F40063B3F5006F13D17B68EF
:105340001B681A687B681B6822F480621A6000235D
:105350007B627B681B685B697B627B681B689B69FF
:105360007B627B6AF2E000233B627B681B685B69BF
:105370003B627B681B689B693B623B6A7B681B687E
:105380001A687B681B6842F400721A60DEE0BB6B2F
:10539000082B2ED0BB6B202B2BD07B6B122B02D17A
:1053A000BB6B012B25D1BB6B042B0ED0BB6B022B2F
:1053B0000BD0BB6B102B08D07B681B681A687B680E
:1053C0001B6822F480621A6007E07B681B681A6819
:1053D0007B681B6842F480621A600023FB617B6873
:1053E0001B685B69FB617B681B689B69FB61FB69F0
:1053F000ACE07B681B681A687B681B6822F48062DB
:105400001A600023BB617B681B685B69BB617B68BA
:105410001B689B69BB61BB697B681B681A687B68FA
:105420001B6842F400721A6090E07B685B8D9BB24F
:10543000022B58D1BB6B042B21D0BB6B022B1ED08F
:10544000BB6B102B1BD07B681B681A687B681B68C2
:1054500042F400621A6000237B617B681B685B6911
:105460007B617B681B689B697B617B697B681B68D0
:105470001A687B681B6822F480621A6012E07B68FD
:105480001B681A687B681B6842F480621A600023FC
:105490003B617B681B685B693B617B681B689B6940
:1054A0003B613B697B681B685B6803F40063B3F591
:1054B000006F4BD1BB6B13F5803F0BD0BB6B012B47
:1054C00008D0BB6B082B05D0BB6B102B02D0BB6B7D
:1054D000202B3BD17B681B685A687B681B6842F4B1
:1054E00080525A6032E07B681B681A687B681B68D0
:1054F00042F480621A607B681B685B6803F4006397
:10550000B3F5006F17D1BB6B13F5803F0BD0BB6BAE
:10551000012B08D0BB6B082B05D0BB6B102B02D026
:10552000BB6B202B07D17B681B685A687B681B68A4
:1055300042F480525A600023FB607B681B685B6901
:10554000FB607B681B689B69FB60FB687B680022D3
:105550001A650BE00023BB607B681B685B69BB605E
:105560007B681B689B69BB60BB68FFE700BF443773
:10557000BD4680BC704780B584B000AF78607B6862
:1055800093F83D30FB737B685B8D9BB2002B2BD077
:105590007B685B6A1A787B681B681A617B685B6A48
:1055A0005A1C7B685A627B685B8D9BB2013B9AB246
:1055B0007B685A857B685B8D9BB2002B14D1FB7B8B
:1055C000292B11D17B681B685A687B681B6822F401
:1055D00080625A607B6821221A637B68282283F8E4
:1055E0003D207868FFF7E6F900BF1037BD4680BD63
:1055F00080B483B000AF78607B685B8D9BB2002B7A
:1056000011D07B685B6A1A787B681B681A617B68BB
:105610005B6A5A1C7B685A627B685B8D9BB2013B5C
:105620009AB27B685A8500BF0C37BD4680BC704774
:1056300080B584B000AF78607B6893F83D30FB7331
:105640007B685B8D9BB2002B2CD07B681B681A6932
:105650007B685B6AD2B21A707B685B6A5A1C7B6893
:105660005A627B685B8D9BB2013B9AB27B685A851C
:105670007B685B8D9BB2002B14D1FB7B2A2B11D155
:105680007B681B685A687B681B6822F480625A60DA
:105690007B6822221A637B68282283F83D20786881
:1056A000FFF791F900BF1037BD4680BD80B483B0CD
:1056B00000AF78607B685B8D9BB2002B12D07B685B
:1056C0001B681A697B685B6AD2B21A707B685B6A76
:1056D0005A1C7B685A627B685B8D9BB2013B9AB215
:1056E0007B685A8500BF0C37BD4680BC704780B5CB
:1056F00084B000AF786039600023FB737B6893F857
:105700003D30DBB203F02803282B27D17B681B68D0
:105710005A687B681B6822F480625A603B689B0869
:1057200003F00103002B01D10123FB733B68DB096C
:1057300003F00103002B03D17B68DB68BB8102E02F
:105740007B689B69BB817B68002283F83C20BA8917
:10575000FB7B19467868FFF73FF90EE00023BB603A
:105760007B681B685B69BB607B681B689B69BB606F
:10577000BB687B68002283F83C2000BF1037BD4621
:1057800080BD000080B584B000AF78607B6893F87E
:105790003D30FB737B681B685A687B681B6822F48A
:1057A000E0625A600023BB607B681B685B69BB607A
:1057B0007B681B681A687B681B6842F001021A60EC
:1057C000BB687B681B681A687B681B6822F4806270
:1057D0001A607B681B685B6803F40063B3F5006FB5
:1057E00072D1FB7B222B02D0FB7B2A2B35D17B682D
:1057F0009B6B1B685B689AB27B685A857B685B8D84
:105800009BB2002B05D07B681B6C43F004027B68C5
:105810001A647B681B685A687B681B6822F4006204
:105820005A607B689B6B1846FDF7CEFC0346012B44
:1058300049D07B689B6B694A5A637B689B6B1846AF
:10584000FDF74CFC0346002B3DD07B689B6B5B6BEC
:105850007A68926B1046984735E07B685B6B1B68F3
:105860005B689AB27B685A857B685B8D9BB2002B24
:1058700005D07B681B6C43F004027B681A647B686C
:105880001B685A687B681B6822F400625A607B6858
:105890005B6B1846FDF798FC0346012B14D07B6820
:1058A0005B6B4E4A5A637B685B6B1846FDF716FCD0
:1058B0000346002B08D07B685B6B5B6B7A68526B8E
:1058C0001046984700E000BF7B685B8D9BB2002BC1
:1058D0003ED07B681B685B6903F00403042B12D184
:1058E0007B681B681A697B685B6AD2B21A707B6836
:1058F0005B6A5A1C7B685A627B685B8D9BB2013B7A
:105900009AB27B685A857B681B685B6903F0400329
:10591000402B12D17B681B681A697B685B6AD2B224
:105920001A707B685B6A5A1C7B685A627B685B8D65
:105930009BB2013B9AB27B685A857B685B8D9BB2B8
:10594000002B05D07B681B6C43F004027B681A6453
:105950007B681B6C002B03D0786800F0B3F839E04B
:10596000FB7B2A2B09D17B6800221A637B682822E3
:1059700083F83D207868FFF726F87B6893F83D3080
:10598000DBB2282B11D17B68154ADA627B680022D2
:105990001A637B68202283F83D207B68002283F80D
:1059A0003E207868FFF725F814E07B681B6B222BFC
:1059B00002D0FB7B222B0DD17B6800221A637B680F
:1059C000202283F83D207B68002283F83E207868FF
:1059D000FEF7F9FF00BF1037BD4680BDC562000865
:1059E0000000FFFF80B584B000AF78607B6893F85B
:1059F0003D30FB737B68DB6ABB60BB68082B02D061
:105A0000BB68202B29D1FB7B282B26D17B682C4A15
:105A1000DA627B681B685A687B681B6822F4E06264
:105A20005A607B681B686FF480625A617B681B68F0
:105A30001A687B681B6822F480621A607B68002207
:105A40001A637B68202283F83D207B68002283F85C
:105A50003E207868FEF7CDFF2EE0FB7B212B26D180
:105A60007B68174ADA627B6821221A637B682022EE
:105A700083F83D207B68002283F83E207B681B680A
:105A80005A687B681B6822F4E0625A607B681B6876
:105A90006FF480625A617B681B681A687B681B68B8
:105AA00022F480621A607868FEF784FF04E07B6865
:105AB0001B686FF480625A6100BF1037BD4680BD1D
:105AC0000000FFFF80B584B000AF78607B6893F87A
:105AD0003D30FB737B6893F83E30BB73BB7B102B70
