:020000040800F2
:1000000000500020A5130008B5120008BB1200081C
:10001000C1120008C7120008CD120008000000003D
:10002000000000000000000000000000D3120008E3
:10003000DF12000800000000EB120008F7120008B1
:10004000ED130008ED130008ED130008ED13000890
:10005000ED130008ED130008ED130008ED13000880
:10006000ED130008ED130008ED130008ED13000870
:10007000ED130008ED130008ED130008ED13000860
:10008000ED130008ED130008ED130008ED13000850
:10009000ED130008ED130008ED130008ED13000840
:1000A000ED130008ED130008ED130008ED13000830
:1000B000ED130008ED130008ED130008ED13000820
:1000C000ED1300080513000819130008ED130008CC
:1000D000ED130008ED130008ED130008ED13000800
:1000E000ED130008ED130008ED13000800000000F8
:1000F0000000000000000000000000000000000000
:0C01000000000000000000005FF808F1A3
:10010C0010B5054C237833B9044B13B10448AFF345
:10011C0000800123237010BD70000020000000003F
:10012C001456000808B5034B1BB103490348AFF341
:10013C00008008BD00000000740000201456000868
:10014C0081F0004102E000BF83F0004330B54FEA7C
:10015C0041044FEA430594EA050F08BF90EA020FE9
:10016C001FBF54EA000C55EA020C7FEA645C7FEA7C
:10017C00655C00F0E2804FEA5454D4EB5555B8BF9F
:10018C006D420CDD2C4480EA020281EA030382EA10
:10019C00000083EA010180EA020281EA0303362DA2
:1001AC0088BF30BD11F0004F4FEA01314FF4801C75
:1001BC004CEA113102D0404261EB410113F0004F87
:1001CC004FEA03334CEA133302D0524263EB43033E
:1001DC0094EA050F00F0A780A4F10104D5F1200EDC
:1001EC000DDB02FA0EFC22FA05F2801841F1000137
:1001FC0003FA0EF2801843FA05F359410EE0A5F10B
:10020C0020050EF1200E012A03FA0EFC28BF4CF03B
:10021C00020C43FA05F3C01851EBE37101F00045F1
:10022C0007D54FF0000EDCF1000C7EEB00006EEBFE
:10023C000101B1F5801F1BD3B1F5001F0CD3490888
:10024C005FEA30004FEA3C0C04F101044FEA4452DF
:10025C0012F5800F80F09A80BCF1004F08BF5FEA66
:10026C00500C50F1000041EB045141EA050130BD46
:10027C005FEA4C0C404141EB0101013C28BFB1F558
:10028C00801FE9D291F0000F04BF01460020B1FAA3
:10029C0081F308BF2033A3F10B03B3F120020CDA76
:1002AC000C3208DD02F1140CC2F10C0201FA0CF054
:1002BC0021FA02F10CE002F11402D8BFC2F1200CB9
:1002CC0001FA02F120FA0CFCDCBF41EA0C0190406F
:1002DC00E41AA2BF01EB0451294330BD6FEA0404B8
:1002EC001F3C1CDA0C340EDC04F11404C4F12002A3
:1002FC0020FA04F001FA02F340EA030021FA04F3B5
:10030C0045EA030130BDC4F10C04C4F1200220FA0B
:10031C0002F001FA04F340EA0300294630BD21FA49
:10032C0004F0294630BD94F0000F83F4801306BF0F
:10033C0081F480110134013D4EE77FEA645C18BF03
:10034C007FEA655C29D094EA050F08BF90EA020F9A
:10035C0005D054EA000C04BF1946104630BD91EA92
:10036C00030F1EBF0021002030BD5FEA545C05D195
:10037C004000494128BF41F0004130BD14F58004D4
:10038C003CBF01F5801130BD01F0004545F0FE4148
:10039C0041F470014FF0000030BD7FEA645C1ABF7D
:1003AC00194610467FEA655C1CBF0B46024650EAB4
:1003BC00013406BF52EA033591EA030F41F40021E0
:1003CC0030BD00BF90F0000F04BF0021704730B566
:1003DC004FF4806404F132044FF000054FF000013B
:1003EC0050E700BF90F0000F04BF0021704730B5FC
:1003FC004FF4806404F1320410F0004548BF4042D1
:10040C004FF000013EE700BF42004FEAE2014FEA25
:10041C0031014FEA02701FBF12F07F4393F07F4F00
:10042C0081F06051704732F07F4208BF704793F003
:10043C007F4F04BF41F40021704730B54FF4607416
:10044C0001F0004521F000411CE700BF50EA010219
:10045C0008BF704730B54FF000050AE050EA0102C2
:10046C0008BF704730B511F0004502D5404261EB32
:10047C0041014FF4806404F132045FEA915C3FF473
:10048C00D8AE4FF003025FEADC0C18BF03325FEA10
:10049C00DC0C18BF033202EBDC02C2F1200300FAC1
:1004AC0003FC20FA02F001FA03FE40EA0E0021FAE6
:1004BC0002F11444BDE600BF70B54FF0FF0C4CF4D4
:1004CC00E06C1CEA11541DBF1CEA135594EA0C0F86
:1004DC0095EA0C0F00F0DEF82C4481EA030621EAC1
:1004EC004C5123EA4C5350EA013518BF52EA0335FC
:1004FC0041F4801143F4801338D0A0FB02CE4FF0AE
:10050C000005E1FB02E506F00042E0FB03E54FF0DD
:10051C000006E1FB03569CF0000F18BF4EF0010ED5
:10052C00A4F1FF04B6F5007F64F5407404D25FEAD1
:10053C004E0E6D4146EB060642EAC62141EA555184
:10054C004FEAC52040EA5E504FEACE2EB4F1FD0CC6
:10055C0088BFBCF5E06F1ED8BEF1004F08BF5FEA44
:10056C00500E50F1000041EB045170BD06F00046F6
:10057C0046EA010140EA020081EA0301B4EB5C04A3
:10058C00C2BFD4EB0C0541EA045170BD41F480119B
:10059C004FF0000E013C00F3AB8014F1360FDEBFC0
:1005AC00002001F0004170BDC4F10004203C35DA9C
:1005BC000C341BDC04F11404C4F1200500FA05F31F
:1005CC0020FA04F001FA05F240EA020001F00042C0
:1005DC0021F0004110EBD37021FA04F642EB060136
:1005EC005EEA430E08BF20EAD37070BDC4F10C0460
:1005FC00C4F1200500FA04F320FA05F001FA04F224
:10060C0040EA020001F0004110EBD37041F100010F
:10061C005EEA430E08BF20EAD37070BDC4F120051A
:10062C0000FA05F24EEA020E20FA04F301FA05F282
:10063C0043EA020321FA04F001F0004121FA04F22A
:10064C0020EA020000EBD3705EEA430E08BF20EAFA
:10065C00D37070BD94F0000F0FD101F00046400034
:10066C0041EB010111F4801F08BF013CF7D041EAB6
:10067C00060195F0000F18BF704703F000465200BA
:10068C0043EB030313F4801F08BF013DF7D043EA8B
:10069C000603704794EA0C0F0CEA135518BF95EA41
:1006AC000C0F0CD050EA410618BF52EA4306D1D1C8
:1006BC0081EA030101F000414FF0000070BD50EAE7
:1006CC00410606BF1046194652EA430619D094EA71
:1006DC000C0F02D150EA013613D195EA0C0F05D15B
:1006EC0052EA03361CBF104619460AD181EA0301AF
:1006FC0001F0004141F0FE4141F470014FF0000067
:10070C0070BD41F0FE4141F4780170BD70B54FF001
:10071C00FF0C4CF4E06C1CEA11541DBF1CEA135581
:10072C0094EA0C0F95EA0C0F00F0A7F8A4EB050463
:10073C0081EA030E52EA03354FEA013100F088805A
:10074C004FEA03334FF0805545EA131343EA126323
:10075C004FEA022245EA111545EA10654FEA0026D8
:10076C000EF000419D4208BF964244F1FD0404F591
:10077C00407402D25B084FEA3202B61A65EB0305ED
:10078C005B084FEA32024FF480104FF4002CB6EBAA
:10079C00020E75EB030E22BFB61A754640EA0C002A
:1007AC005B084FEA3202B6EB020E75EB030E22BF6A
:1007BC00B61A754640EA5C005B084FEA3202B6EBAB
:1007CC00020E75EB030E22BFB61A754640EA9C006A
:1007DC005B084FEA3202B6EB020E75EB030E22BF3A
:1007EC00B61A754640EADC0055EA060E18D04FEAF8
:1007FC00051545EA16754FEA06164FEAC30343EA98
:10080C0052734FEAC2025FEA1C1CC0D111F4801F64
:10081C000BD141EA00014FF000004FF0004CB6E75D
:10082C0011F4801F04BF01430020B4F1FD0C88BFFC
:10083C00BCF5E06F3FF6AFAEB5EB030C04BFB6EB07
:10084C00020C5FEA500C50F1000041EB045170BDFA
:10085C000EF0004E4EEA113114EB5C04C2BFD4EB27
:10086C000C0541EA045170BD41F480114FF0000EAB
:10087C00013C90E645EA060E8DE60CEA135594EA27
:10088C000C0F08BF95EA0C0F3FF43BAF94EA0C0F2A
:10089C000AD150EA01347FF434AF95EA0C0F7FF49F
:1008AC0025AF104619462CE795EA0C0F06D152EAF3
:1008BC0003353FF4FDAE1046194622E750EA4106D7
:1008CC0018BF52EA43067FF4C5AE50EA41047FF4E8
:1008DC000DAF52EA43057FF4EBAE12E74A0011D29A
:1008EC0012F5001211D20DD56FF47873B3EB62527E
:1008FC000ED44FEAC12343F0004343EA505323FA8A
:10090C0002F070474FF00000704750EA013002D1FE
:10091C004FF0FF3070474FF00000704790B597B024
:10092C0014AF234B20221A70224C01231393204B1B
:10093C00129323231193684604F1100344221946A1
:10094C0004F0E0F994E80F0000F038F8194C022399
:10095C001393174B129323231193684604F110033E
:10096C004422194604F0CEF994E80F0000F060F828
:10097C000F4B1B787B600E4B5B783B607B681B02DC
:10098C007B607A683B6813437B607868FFF71AFDDD
:10099C004FF03332084BFFF7B9FE02460B461046B8
:1009AC001946FFF79BFF034618460C37BD4690BD12
:1009BC008C000020A00000203333F33F84B080B5BE
:1009CC0082B002AF07F1080C8CE80F0011E007F1C0
:1009DC00080001F0D9FF0346042B0AD01249134832
:1009EC0004F0A6F90021042000F063FA0F4800F08F
:1009FC002BFA97F85C309BB25B0099B297F8643095
:100A0C009BB24FF47A7200923A6E07F1080001F033
:100A1C00DFF90346002BDAD100BF00BFBD46BDE8AD
:100A2C00804004B0704700BF2C5600089000002096
:100A3C0084B080B582B002AF07F1080C8CE80F00CF
:100A4C0011E007F1080001F09FFF0346042B0AD0C8
:100A5C001249134804F06CF90021042000F029FA23
:100A6C000F4800F0F1F997F85C309BB25B0099B23B
:100A7C0097F864309BB24FF47A7200923A6E07F199
:100A8C00080001F0A3FA0346002BDAD100BF00BF27
:100A9C00BD46BDE8804004B0704700BF2C5600082E
:100AAC009000002080B483B000AF0023FB8002E0F4
:100ABC00FB880133FB80FB88B3F57A7FF8D300BF4A
:100ACC0000BF0C37BD4680BC7047000080B582B0BB
:100ADC0000AF0346FB71FB79DB08DBB203F00103CB
:100AEC00002B05D001224021204801F015F804E02C
:100AFC00002240211D4801F00FF8FB799B08DBB266
:100B0C0003F00103002B05D001222021174801F02E
:100B1C0003F804E000222021144800F0FDFFFB79CB
:100B2C005B08DBB203F00103002B05D0012210217E
:100B3C000E4800F0F1FF04E0002210210B4800F0F9
:100B4C00EBFFFB7903F00103002B05D001220821F8
:100B5C00064800F0E1FF04E000220821034800F001
:100B6C00DBFF00BF0837BD4680BD00BF000C014055
:100B7C0080B582B000AF0346FB7101224FF4807147
:100B8C00144800F0C9FFFB791B09DBB21846FFF7CC
:100B9C009DFF012280210F4800F0BEFFFFF782FF6E
:100BAC00002280210B4800F0B7FFFB791846FFF7B5
:100BBC008DFF01228021074800F0AEFFFFF772FF86
:100BCC0000228021034800F0A7FF00BF0837BD4674
:100BDC0080BD00BF000C014080B582B000AF034661
:100BEC00FB7100224FF48071144800F095FFFB79E3
:100BFC001B09DBB21846FFF769FF012280210F4861
:100C0C0000F08AFFFFF74EFF002280210B4800F016
:100C1C0083FFFB791846FFF759FF01228021074813
:100C2C0000F07AFFFFF73EFF00228021034800F01E
:100C3C0073FF00BF0837BD4680BD00BF000C0140EC
:100C4C0080B483B000AF0346FB71FB79092B2BD822
:100C5C0001A252F823F000BF8D0C0008910C000883
:100C6C00950C0008990C00089D0C0008A10C0008BC
:100C7C00A50C0008A90C0008AD0C0008B10C00086C
:100C8C00302312E0312310E032230EE033230CE04A
:100C9C0034230AE0352308E0362306E0372304E04A
:100CAC00382302E0392300E0302318460C37BD46C8
:100CBC0080BC704780B58AB000AF78607B687B627F
:100CCC000023FB6007F1100300221A605A609A603F
:100CDC0000233B627B68002B51DD0F23FB7723E065
:100CEC007B6A002B25DD7A6A564B83FB0213991025
:100CFC00D317C91A0B469B000B445B00D11A97F90A
:100D0C001F30CAB228333B4403F81C2C7B6A4D4A73
:100D1C0082FB03129210DB17D31A7B6297F91F30F8
:100D2C00DBB2013BDBB2FB7797F91F30002BD7DA34
:100D3C0000E000BF0023BB771DE0BB7F28333B44A2
:100D4C0013F81C3C002B02D13B6A002B0FD0BB7F4D
:100D5C0028333B4413F81C3C1846FFF771FF03463D
:100D6C00184600F08DF83B6A01333B6200E000BF8F
:100D7C00BB7F0133BB77BB7F0F2BDED95DE07B687C
:100D8C00002B03D1302000F07BF856E02D2000F032
:100D9C0077F87B6A5B427B620F237B7723E07B6A6D
:100DAC00002B25DD7A6A274B83FB02139910D3178E
:100DBC00C91A0B469B000B445B00D11A97F91D30E6
:100DCC00CAB228333B4403F81C2C7B6A1D4A82FBB5
:100DDC0003129210DB17D31A7B6297F91D30DBB22A
:100DEC00013BDBB27B7797F91D30002BD7DA00E0A3
:100DFC0000BF00233B771DE03B7F28333B4413F8B7
:100E0C001C3C002B02D13B6A002B0FD03B7F2833BC
:100E1C003B4413F81C3C1846FFF712FF03461846D8
:100E2C0000F02EF83B6A01333B6200E000BF3B7FD1
:100E3C0001333B773B7F0F2BDED900BF2837BD46F4
:100E4C0080BD00BF6766666680B584B000AF786011
:100E5C000023FB7309E0FB7B7A6813441B7818466C
:100E6C0000F00EF8FB7B0133FB73FB7B7A681344B9
:100E7C001B78002BEFD100BF00BF1037BD4680BDE3
:100E8C0080B582B000AF0346FB71FB791846FFF7C3
:100E9C006FFEFFF707FE00BF0837BD4680BD80B56B
:100EAC0000AF0120FFF798FE022000F0FDFA00BF12
:100EBC0080BD80B582B000AF03460A46FB71134675
:100ECC00BB71BB79002B02D0012B0BD019E0FB7945
:100EDC0063F07F03DBB21846FFF77EFE012000F0C3
:100EEC00E3FA0EE0FB794033DBB25BB263F07F03D5
:100EFC005BB2DBB21846FFF76FFE012000F0D4FAAC
:100F0C0000BF00BF0837BD4680BD000080B500AFF4
:100F1C00282000F0C9FA00224FF480712C4800F010
:100F2C00FBFD0320FFF7D2FD01228021284800F0B1
:100F3C00F3FDFFF7B7FD00228021254800F0ECFD02
:100F4C00012000F0B1FA0320FFF7C0FD012280213F
:100F5C001F4800F0E1FDFFF7A5FD002280211C4891
:100F6C0000F0DAFD012000F09FFA0320FFF7AEFD40
:100F7C0001228021164800F0CFFDFFF793FD0022DF
:100F8C008021134800F0C8FD012000F08DFA0820E4
:100F9C00FFF722FE012000F087FA0C20FFF71CFE61
:100FAC00012000F081FA0120FFF716FE022000F06C
:100FBC007BFA0620FFF710FE012000F075FA0220E4
:100FCC00FFF70AFE022000F06FFA00BF80BD00BFE1
:100FDC00000C014080B582B000AF00F003FA00F0C5
:100FEC002CF800F099F800F069F8FFF78FFFFFF785
:100FFC0056FF8F20FFF744FF4FF47A7000F054FA3D
:10100C00E820FFF73DFF4FF47A7000F04DFAFFF740
:10101C0046FF01210020FFF74CFF00237B60FFF708
:10102C007DFC78607B681846FFF744FE4FF47A70BD
:10103C0000F03AFAFFF733FFF1E780B590B000AF5C
:10104C0007F1180328220021184603F069FE3B1D06
:10105C0000221A605A609A60DA601A610223BB613E
:10106C000123BB621023FB6202237B630023BB635F
:10107C004FF42013FB6307F11803184603F012FA20
:10108C000346002B01D000F087F80F237B6002236E
:10109C00BB600023FB604FF480633B6100237B61EA
:1010AC003B1D0121184603F07FFC0346002B01D0A9
:1010BC0000F072F800BF4037BD4680BD80B500AF70
:1010CC00124B134A1A60114B124A5A600F4B0022F2
:1010DC009A600E4B0022DA600C4B4FF480421A617E
:1010EC000A4B00225A61094B00229A61074B0022DD
:1010FC00DA61064B00221A62044800F025FD034613
:10110C00002B01D000F048F800BF80BDA0000020EB
:10111C0000580040A086010080B586B000AF07F1F2
:10112C00080300221A605A609A60DA60184B9B69B7
:10113C00174A43F008039361154B9B6903F00803AE
:10114C007B607B68124B9B69114A43F004039361EB
:10115C000F4B9B6903F004033B603B6800224FF488
:10116C00FC710C4800F0D8FC4FF4FC73BB600123FD
:10117C00FB6000233B6102237B6107F108031946E6
:10118C00044800F045FB00BF1837BD4680BD00BFCA
:10119C0000100240000C014080B400AF72B600BFDA
:1011AC00FEE7000080B485B000AF154B9B69144A74
:1011BC0043F001039361124B9B6903F00103BB6085
:1011CC00BB680F4BDB690E4A43F08053D3610C4B69
:1011DC00DB6903F080537B607B680A4B5B68FB60C8
:1011EC00FB6823F0E063FB60FB6843F00073FB607B
:1011FC00044AFB68536000BF1437BD4680BC70477F
:10120C00001002400000014080B588B000AF78604B
:10121C0007F1100300221A605A609A60DA607B684A
:10122C001B681E4A934234D11D4B9B691C4A43F0E8
:10123C00080393611A4B9B6903F00803FB60FB687E
:10124C004FF440633B6112237B610323FB6107F185
:10125C0010031946134800F0DBFA114BDB69104AF6
:10126C0043F48003D3610E4BDB6903F48003BB6052
:10127C00BB6800220021212000F011FA212000F08F
:10128C002AFA00220021222000F009FA222000F084
:10129C0022FA00BF2037BD4680BD00BF0058004079
:1012AC0000100240000C014080B400AFFEE780B497
:1012BC0000AFFEE780B400AFFEE780B400AFFEE7FE
:1012CC0080B400AFFEE780B400AF00BFBD4680BC69
:1012DC00704780B400AF00BFBD4680BC704780B47F
:1012EC0000AF00BFBD4680BC704780B500AF00F0BA
:1012FC00BFF800BF80BD000080B500AF024801F010
:10130C00C5F800BF80BD00BFA000002080B500AFB5
:10131C00024801F02CFA00BF80BD00BFA0000020E5
:10132C0080B586B000AF7860144A154BD31A7B6138
:10133C007B693B61134B1B68002B02D1114B124A8A
:10134C001A60104B1A687B6813443A699A4207D2A8
:10135C0003F0AEFC03460C221A604FF0FF3309E099
:10136C00084B1B68FB60074B1A687B681344054AE3
:10137C001360FB6818461837BD4680BD005000202E
:10138C0000040000F40000201001002080B400AF25
:10139C0000BFBD4680BC70470C480D490D4A002368
:1013AC0002E0D458C4500433C4188C42F9D30A4A0E
:1013BC000A4C002301E013600432A242FBD3FFF776
:1013CC00E5FF03F07BFCFFF705FE704700000020F3
:1013DC0070000020A0560008700000200C010020B6
:1013EC00FEE7000080B500AF084B1B68074A43F0CE
:1013FC0010031360032000F047F90F2000F008F8E9
:10140C00FFF7D0FE0023184680BD00BF002002402D
:10141C0080B582B000AF7860124B1A68124B1B7803
:10142C0019464FF47A73B3FBF1F3B2FBF3F318469E
:10143C0000F05FF90346002B01D001230EE07B681E
:10144C000F2B0AD8002279684FF0FF3000F027F9F3
:10145C00064A7B681360002300E001231846083716
:10146C00BD4680BD000000200800002004000020C4
:10147C0080B400AF054B1B781A46054B1B68134410
:10148C00034A136000BFBD4680BC704708000020B3
:10149C00F800002080B400AF024B1B681846BD4614
:1014AC0080BC7047F800002080B584B000AF786035
:1014BC00FFF7F0FFB8607B68FB60FB68B3F1FF3FA0
:1014CC0005D00A4B1B781A46FB681344FB6000BF1F
:1014DC00FFF7E0FF0246BB68D31AFA689A42F7D8C6
:1014EC0000BF00BF1037BD4680BD00BF0800002004
:1014FC0080B485B000AF78607B6803F00703FB60B5
:10150C000C4BDB68BB60BA684FF6FF031340BB6043
:10151C00FB681A02BB68134343F0BF6343F4003308
:10152C00BB60044ABB68D36000BF1437BD4680BCA7
:10153C00704700BF00ED00E080B400AF044BDB68E7
:10154C001B0A03F007031846BD4680BC704700BF5A
:10155C0000ED00E080B483B000AF0346FB7197F957
:10156C000730002B0BDBFB7903F01F02064997F9C0
:10157C0007305B09012000FA02F241F8232000BF7A
:10158C000C37BD4680BC704700E100E080B483B0EE
:10159C0000AF03463960FB7197F90730002B0ADB6B
:1015AC003B68DAB20C4997F907301201D2B20B44FE
:1015BC0083F800230AE03B68DAB20849FB7903F0B0
:1015CC000F03043B1201D2B20B441A7600BF0C3746
:1015DC00BD4680BC704700BF00E100E000ED00E0BC
:1015EC0080B489B000AFF860B9607A60FB6803F032
:1015FC000703FB61FB69C3F10703042B28BF04231A
:10160C00BB61FB690433062B02D9FB69033B00E089
:10161C0000237B614FF0FF32BB6902FA03F3DA431C
:10162C00BB681A407B699A404FF0FF317B6901FA25
:10163C0003F3D9437B680B40134318462437BD464C
:10164C0080BC704780B582B000AF78607B68013B8E
:10165C00B3F1807F01D301230FE00A4A7B68013B81
:10166C0053600F214FF0FF30FFF790FF054B002226
:10167C009A60044B07221A60002318460837BD46AF
:10168C0080BD00BF10E000E080B582B000AF786094
:10169C007868FFF72DFF00BF0837BD4680BD80B5C9
:1016AC0086B000AF0346B9607A60FB7300237B61A0
:1016BC00FFF742FF78617A68B9687869FFF790FFA5
:1016CC00024697F90F3011461846FFF75FFF00BF2F
:1016DC001837BD4680BD80B582B000AF0346FB71A4
:1016EC0097F907301846FFF735FF00BF0837BD469E
:1016FC0080BD80B582B000AF78607868FFF7A2FF3C
:10170C00034618460837BD4680BD000080B584B03E
:10171C0000AF78600023FB737B6893F82130022BB9
:10172C0005D07B6804229A630123FB7351E07B682C
:10173C001B681A687B681B6822F00E021A607B68B3
:10174C001B681A687B681B6822F001021A607B68B0
:10175C001B68224A934229D07B681B68204A93421B
:10176C0022D07B681B681F4A93421AD07B681B6887
:10177C001D4A934212D07B681B681C4A93420AD0C4
:10178C007B681B681A4A934202D14FF480130EE017
:10179C004FF080730BE04FF4803308E04FF480532C
:1017AC0005E04FF4807302E0102300E00123114A9E
:1017BC0053607B68012283F821207B68002283F828
:1017CC0020207B685B6B002B03D07B685B6B78689D
:1017DC009847FB7B18461037BD4680BD0800024079
:1017EC001C000240300002404400024058000240FD
:1017FC006C0002400000024080B483B000AF7860FF
:10180C007B6893F8213018460C37BD4680BC704776
:10181C0080B48BB000AF7860396000237B6200230A
:10182C003B6269E101227B6A02FA03F3FB613B68CC
:10183C001B68FA691340BB61BA69FB699A4240F0B4
:10184C0058813B685B689A4A93425ED0984A9342AF
:10185C0075D8984A934258D0964A93426FD8964A74
:10186C00934252D0944A934269D8944A93424CD0B2
:10187C00924A934263D8924A934246D0904A9342FA
:10188C005DD8122B2AD8122B59D801A252F823F06A
:10189C0017190008F1180008031900084519000869
:1018AC004B1900084B1900084B1900084B1900087C
:1018BC004B1900084B1900084B1900084B1900086C
:1018CC004B1900084B1900084B1900084B1900085C
:1018DC004B190008F91800080D190008794A9342B1
:1018EC0013D02CE03B68DB683B6229E03B68DB688B
:1018FC0004333B6224E03B68DB6808333B621FE047
:10190C003B68DB680C333B621AE03B689B68002B3E
:10191C0002D104233B6213E03B689B68012B05D189
:10192C0008233B627B68FA691A6109E008233B6271
:10193C007B68FA695A6103E000233B6200E000BF58
:10194C00BB69FF2B01D87B6801E07B6804337B61AA
:10195C00BB69FF2B02D87B6A9B0002E07B6A083BC9
:10196C009B003B617B691A680F213B6901FA03F309
:10197C00DB431A40396A3B6901FA03F31A437B696A
:10198C001A603B685B6803F08053002B00F0B18059
:10199C004D4B9B694C4A43F0010393614A4B9B6945
:1019AC0003F00103BB60BB68484A7B6A9B080233A7
:1019BC0052F82330FB607B6A03F003039B000F2279
:1019CC0002FA03F3DB43FA681340FB607B68404A7E
:1019DC00934213D07B683F4A93420DD07B683E4ABA
:1019EC00934207D07B683D4A934201D1032306E022
:1019FC00042304E0022302E0012300E000237A6ABE
:101A0C0002F0030292009340FA681343FB602F49E3
:101A1C007B6A9B080233FA6841F823203B685B68B9
:101A2C0003F48033002B06D02D4B1A682C49BB696C
:101A3C0013430B6006E02A4B1A68BB69DB43284949
:101A4C0013400B603B685B6803F40033002B06D03B
:101A5C00234B5A682249BB6913434B6006E0204B69
:101A6C005A68BB69DB431E4913404B603B685B689B
:101A7C0003F48013002B06D0194B9A681849BB69E4
:101A8C0013438B6006E0164B9A68BB69DB43144921
:101A9C0013408B603B685B6803F40013002B21D070
:101AAC000F4BDA680E49BB691343CB6021E000BFD2
:101ABC000000321000003110000022100000211034
:101ACC000000121000001110001002400000014034
:101ADC0000080140000C01400010014000140140BE
:101AEC00000401400B4BDA68BB69DB430949134026
:101AFC00CB607B6A01337B623B681A687B6A22FA93
:101B0C0003F3002B7FF48EAE00BF00BF2C37BD4615
:101B1C0080BC70470004014080B483B000AF786093
:101B2C000B467B8013467B707B78002B03D07A8826
:101B3C007B681A6103E07B881A047B681A6100BF1A
:101B4C000C37BD4680BC704780B584B000AF786060
:101B5C007B68002B01D101232BE17B6893F83D308E
:101B6C00DBB2002B06D17B68002283F83C2078681E
:101B7C00FFF74AFB7B68242283F83D207B681B68B7
:101B8C001A687B681B6822F001021A607B681B686C
:101B9C001A687B681B6842F400421A607B681B68F9
:101BAC001A687B681B6822F400421A6003F04EF836
:101BBC00F8607B685B68814A934207D8FB68804A6F
:101BCC00934294BF01230023DBB206E0FB687D4AFD
:101BDC00934294BF01230023DBB2002B01D00123DD
:101BEC00E7E0FB68784AA2FB03239B0CBB607B6895
:101BFC001B685B6823F03F017B681B68BA680A436B
:101C0C005A607B681B681B6A23F03F017B685B682A
:101C1C006A4A934202D8BB68013309E0BB684FF4AF
:101C2C00967202FB03F3694AA2FB03239B0901335F
:101C3C007A6812680B4313627B681B68DB6923F4B8
:101C4C004F4222F0FF027B685B685C498B4219D8DB
:101C5C00FB68591E7B685B685B00B1FBF3F3591C96
:101C6C0040F6FC730B40002B0AD0FB68591E7B68B6
:101C7C005B685B00B1FBF3F30133C3F30B0351E07F
:101C8C0004234FE07B689B68002B11D1FB68581E26
:101C9C007B6859680B465B000B44B0FBF3F30133D4
:101CAC00C3F30B03002B0CBF01230023DBB212E0A8
:101CBC00FB68581E7B6859680B469B000B449900C7
:101CCC000B44B0FBF3F30133C3F30B03002B0CBF3A
:101CDC0001230023DBB2002B01D0012322E07B681F
:101CEC009B68002B0ED1FB68581E7B6859680B460D
:101CFC005B000B44B0FBF3F30133C3F30B0343F46E
:101D0C0000430FE0FB68581E7B6859680B469B002C
:101D1C000B4499000B44B0FBF3F30133C3F30B03F7
:101D2C0043F44043796809681343CB617B681B68B3
:101D3C001B6823F0C0017B68DA697B681B6A1A4355
:101D4C007B681B680A431A607B681B689B6823F4DA
:101D5C00034323F0FF037A6811697A68D268114350
:101D6C007A6812680B4393607B681B68DB6823F00E
:101D7C00FF017B685A697B689B691A437B681B6807
:101D8C000A43DA607B681B681A687B681B6842F040
:101D9C0001021A607B6800221A647B68202283F897
:101DAC003D207B6800221A637B68002283F83E206A
:101DBC00002318461037BD4680BD00BFA086010029
:101DCC007F841E00FF083D0083DE1B43D34D621051
:101DDC0080B588B002AFF8607A601A460B467B81FA
:101DEC0013463B81FFF756FB7861FB6893F83D3057
:101DFC00DBB2202B40F0E0807B6900931923012299
:101E0C007049F86802F026F90346002B01D0022332
:101E1C00D3E0FB6893F83C30012B01D10223CCE0DA
:101E2C00FB68012283F83C20FB681B681B6803F0ED
:101E3C000103012B07D0FB681B681A68FB681B6841
:101E4C0042F001021A60FB681B681A68FB681B6889
:101E5C0022F400621A60FB68212283F83D20FB68A3
:101E6C00102283F83E20FB6800221A64FB687A6813
:101E7C005A62FB683A895A85FB685B8D9AB2FB689B
:101E8C001A85FB68504ADA6279897B693A6AF86884
:101E9C0001F0E8FE0346002B01D001238DE0002366
:101EAC003B61FB681B685B693B61FB681B689B695A
:101EBC003B613B6966E07A69396AF86802F0A0F91F
:101ECC000346002B0DD0FB681B6C042B07D1FB6861
:101EDC001B681A68FB681B6842F400721A600123C5
:101EEC006BE0FB685B6A1A78FB681B681A61FB681D
:101EFC005B6A5A1CFB685A62FB685B8D9BB2013BA8
:101F0C009AB2FB685A85FB681B8D013B9AB2FB6841
:101F1C001A85FB681B685B6903F00403042B1BD157
:101F2C00FB681B8D002B17D0FB685B6A1A78FB686B
:101F3C001B681A61FB685B6A5A1CFB685A62FB6877
:101F4C005B8D9BB2013B9AB2FB685A85FB681B8D7B
:101F5C00013B9AB2FB681A857A69396AF86802F013
:101F6C0090F90346002B0DD0FB681B6C042B07D19A
:101F7C00FB681B681A68FB681B6842F400721A60E5
:101F8C0001231AE0FB681B8D002B94D1FB681B68A6
:101F9C001A68FB681B6842F400721A60FB68202206
:101FAC0083F83D20FB68002283F83E20FB6800226A
:101FBC0083F83C20002300E0022318461837BD4666
:101FCC0080BD00BF020010000000FFFF80B58CB088
:101FDC0002AFF8607A601A460B467B8113463B8150
:101FEC0000233B62FFF756FA7862FB6893F83D30AA
:101FFC00DBB2202B40F03F827B6A00931923012235
:10200C007F49F86802F026F80346002B01D0022322
:10201C0032E2FB6893F83C30012B01D102232BE216
:10202C00FB68012283F83C20FB681B681B6803F0EB
:10203C000103012B07D0FB681B681A68FB681B683F
:10204C0042F001021A60FB681B681A68FB681B6887
:10205C0022F400621A60FB68222283F83D20FB68A0
:10206C00102283F83E20FB6800221A64FB687A6811
:10207C005A62FB683A895A85FB685B8D9AB2FB6899
:10208C001A85FB685F4ADA6279897B6A3A6BF86871
:10209C0001F06AFE0346002B01D00123ECE1FB6842
:1020AC001B8D002B13D10023FB61FB681B685B6944
:1020BC00FB61FB681B689B69FB61FB69FB681B6828
:1020CC001A68FB681B6842F400721A60C0E1FB6876
:1020DC001B8D012B1ED1FB681B681A68FB681B68E3
:1020EC0022F480621A6072B600BF0023BB61FB68E9
:1020FC001B685B69BB61FB681B689B69BB61BB6947
:10210C00FB681B681A68FB681B6842F400721A6053
:10211C0062B635E0FB681B8D022B1ED1FB681B6879
:10212C001A68FB681B6842F400621A6072B600BF42
:10213C0000237B61FB681B685B697B61FB681B6828
:10214C009B697B617B69FB681B681A68FB681B6871
:10215C0022F480621A6062B612E0FB681B681A688F
:10216C00FB681B6842F480621A6000233B61FB68C9
:10217C001B685B693B61FB681B689B693B613B6946
:10218C0066E1FB681B8D032B00F21F81FB681B8D26
:10219C00012B23D17A6A396BF86802F0E5F8034613
:1021AC00002B01D0012367E1FB681B681A69FB68EF
:1021BC005B6AD2B21A70FB685B6A5A1CFB685A6283
:1021CC00FB681B8D013B9AB2FB681A85FB685B8D23
:1021DC009BB2013B9AB2FB685A8539E1FB681B8DB7
:1021EC00022B52D17B6A00933B6B00220649F868A4
:1021FC0001F030FF0346002B08D001233CE100BF67
:10220C00020010000000FFFF0400010072B600BFC6
:10221C00FB681B681A68FB681B6842F400721A6042
:10222C00FB681B681A69FB685B6AD2B21A70FB68A0
:10223C005B6A5A1CFB685A62FB681B8D013B9AB2A5
:10224C00FB681A85FB685B8D9BB2013B9AB2FB68FD
:10225C005A8562B600BFFB681B681A69FB685B6A2B
:10226C00D2B21A70FB685B6A5A1CFB685A62FB6834
:10227C001B8D013B9AB2FB681A85FB685B8D9BB288
:10228C00013B9AB2FB685A85E2E07B6A00933B6B98
:10229C0000227B49F86801F0DDFE0346002B01D0DB
:1022AC000123E9E0FB681B681A68FB681B6822F4D1
:1022BC0080621A6072B600BFFB681B681A69FB6803
:1022CC005B6AD2B21A70FB685B6A5A1CFB685A6272
:1022DC00FB681B8D013B9AB2FB681A85FB685B8D12
:1022EC009BB2013B9AB2FB685A85664B1B68DB08B4
:1022FC00654AA2FB03231A0A13469B001344DA0017
:10230C00D31A3B623B6A013B3B623B6A002B18D100
:10231C00FB6800221A63FB68202283F83D20FB68CF
:10232C00002283F83E20FB681B6C43F02002FB6804
:10233C001A6462B600BFFB68002283F83C200123BC
:10234C009AE0FB681B685B6903F00403042BD9D18A
:10235C00FB681B681A68FB681B6842F400721A6001
:10236C00FB681B681A69FB685B6AD2B21A70FB685F
:10237C005B6A5A1CFB685A62FB681B8D013B9AB264
:10238C00FB681A85FB685B8D9BB2013B9AB2FB68BC
:10239C005A8562B600BFFB681B681A69FB685B6AEA
:1023AC00D2B21A70FB685B6A5A1CFB685A62FB68F3
:1023BC001B8D013B9AB2FB681A85FB685B8D9BB247
:1023CC00013B9AB2FB685A8542E07A6A396BF8682D
:1023DC0001F0CAFF0346002B01D001234CE0FB683F
:1023EC001B681A69FB685B6AD2B21A70FB685B6A7D
:1023FC005A1CFB685A62FB681B8D013B9AB2FB6846
:10240C001A85FB685B8D9BB2013B9AB2FB685A85BF
:10241C00FB681B685B6903F00403042B18D1FB6891
:10242C001B681A69FB685B6AD2B21A70FB685B6A3C
:10243C005A1CFB685A62FB681B8D013B9AB2FB6805
:10244C001A85FB685B8D9BB2013B9AB2FB685A857F
:10245C00FB681B8D002B7FF494AEFB68202283F865
:10246C003D20FB68002283F83E20FB68002283F8A5
:10247C003C20002300E0022318462837BD4680BDCF
:10248C00040001000000002089B5F81480B588B064
:10249C0000AF78600023BB617B681B685B687B6165
:1024AC007B68DB6A3B617B6893F83E30FB737B682F
:1024BC0093F83D30BB73FB7B102B03D0FB7B402B85
:1024CC0040F0C1807B681B689B69BB617B681B68A3
:1024DC005B69FB61FB6903F00103002B0DD13B69C8
:1024EC00B3F52A0F03D03B69B3F12A4F01D1012375
:1024FC0000E00023012B00F03281FB6903F00103A3
:10250C00002B0CD07B695B0A03F00103002B06D077
:10251C00786801F0ADFF786800F082FD92E0FB690D
:10252C00DB0803F00103002B09D07B695B0A03F085
:10253C000103002B03D0786800F0F7FD82E0FB6903
:10254C005B0803F00103002B09D07B695B0A03F0E5
:10255C000103002B03D0786800F010FE72E0BB6919
:10256C009B0803F00103002B3BD07B681B685B6866
:10257C0003F40063B3F5006F00F0F380FB69DB0933
:10258C0003F00103002B0FD07B699B0A03F00103BE
:10259C00002B09D0FB699B0803F00103002B03D12E
:1025AC00786800F0FCF94DE0FB699B0803F001032F
:1025BC00002B00F0D6807B695B0A03F00103002B33
:1025CC0000F0CF80BB7B212B03D1786800F083FA1D
:1025DC00C7E0FB7B402B40F0C480786800F0F1FA38
:1025EC00BFE07B681B685B6803F40063B3F5006FA6
:1025FC0000F0B780FB699B0903F00103002B0FD09F
:10260C007B699B0A03F00103002B09D0FB699B0833
:10261C0003F00103002B03D1786800F066FB11E096
:10262C00FB699B0803F00103002B00F09A807B6987
:10263C005B0A03F00103002B00F09380786800F034
:10264C0005FC8EE08DE07B681B6C002B04D07B6856
:10265C001B685B69FB6107E07B681B689B69BB615E
:10266C007B681B685B69FB61FB695B0803F001031A
:10267C00002B12D07B695B0A03F00103002B0CD0FA
:10268C007B681B6C002B03D07B681B689B69BB6150
:10269C00B969786800F0C9FF66E0FB691B0903F0B3
:1026AC000103002B09D07B695B0A03F00103002BAB
:1026BC0003D0786801F004F856E0BB7B212B02D0E4
:1026CC00BB7B292B25D1FB69DB0903F00103002B14
:1026DC000FD07B699B0A03F00103002B09D0FB6927
:1026EC009B0803F00103002B03D1786800F0E1FE96
:1026FC0039E0FB699B0803F00103002B33D07B69A5
:10270C005B0A03F00103002B2DD0786800F00EFF5C
:10271C0029E0FB699B0903F00103002B0FD07B69B7
:10272C009B0A03F00103002B09D0FB699B0803F003
:10273C000103002B03D1786800F018FF14E0FB694B
:10274C009B0803F00103002B0ED07B695B0A03F09E
:10275C000103002B08D0786800F046FF04E000BFAE
:10276C0002E000BF00E000BF2037BD4680BD80B551
:10277C008AB000AF78607B681B685B693B627B68E2
:10278C001B685B68FB6100237B627B6893F83E30BF
:10279C00FB763B6A1B0A03F00103002B16D0FB6986
:1027AC001B0A03F00103002B10D07B6A43F00103DA
:1027BC007B627B681B686FF480725A617B681B6854
:1027CC001A687B681B6842F400421A603B6A5B0A19
:1027DC0003F00103002B0ED0FB691B0A03F001036D
:1027EC00002B08D07B6A43F002037B627B681B687A
:1027FC006FF400725A613B6A9B0A03F00103002BD1
:10280C003FD0FB691B0A03F00103002B39D0FB7E80
:10281C00BB767B685B8D9BB27B617B6893F83D30AC
:10282C00FB747B681B6BFB60BB7E202B12D17B691E
:10283C00002B0FD1FB7C212B08D0FB7C292B05D046
:10284C00FB7C282B06D1FB68212B03D1786801F087
:10285C0067F816E07B681B686FF480625A617B6ACC
:10286C0043F004037B62FB7E102B02D0FB7E402BDB
:10287C0007D17B681B681A687B681B6842F400727E
:10288C001A603B6ADB0A03F00103002B0ED0FB69D4
:10289C001B0A03F00103002B08D07B6A43F00803EA
:1028AC007B627B681B686FF400625A617B6A002B49
:1028BC0008D07B681A6C7B6A1A437B681A64786848
:1028CC0001F09EF800BF2837BD4680BD80B483B0B0
:1028DC0000AF786000BF0C37BD4680BC704780B439
:1028EC0083B000AF786000BF0C37BD4680BC70472A
:1028FC0080B483B000AF786000BF0C37BD4680BC9D
:10290C00704780B483B000AF786000BF0C37BD4611
:10291C0080BC704780B483B000AF78600B46FB700E
:10292C0013463B8000BF0C37BD4680BC704780B45B
:10293C0083B000AF786000BF0C37BD4680BC7047D9
:10294C0080B483B000AF786000BF0C37BD4680BC4C
:10295C00704780B483B000AF786000BF0C37BD46C1
:10296C0080BC704780B483B000AF786000BF0C3778
:10297C00BD4680BC704780B483B000AF786000BFA8
:10298C000C37BD4680BC704780B483B000AF786014
:10299C007B681B6C18460C37BD4680BC704780B5F5
:1029AC0084B000AF78607B6893F83D30FB737B6834
:1029BC0093F83E30BB737B68DB6ABB607B681B8D16
:1029CC00002B50D1FB7B212B4DD1BB68082B1DD08C
:1029DC00BB68202B1AD0BB6813F5803F16D07B68E0
:1029EC001B685A687B681B6822F4E0625A607B683B
:1029FC0011221A637B68002283F83E207B68202218
:102A0C0083F83D207868FFF761FF60E07B681B6806
:102A1C005A687B681B6822F4E0625A607B681B680A
:102A2C001A687B681B6842F400721A607B6800228B
:102A3C001A637B68202283F83D207B6893F83E3034
:102A4C00DBB2402B07D17B68002283F83E207868EC
:102A5C00FFF776FF3BE07B68002283F83E20786826
:102A6C00FFF734FF33E0FB7B212B05D0BB7B402BE6
:102A7C002DD1FB7B222B2AD17B685B8D9BB2002B4B
:102A8C0008D17B681B685A687B681B6822F48062DB
:102A9C005A601CE07B6893F83E30DBB2402B03D1CC
:102AAC00786800F08EF812E07B685B6A1A787B68B5
:102ABC001B681A617B685B6A5A1C7B685A627B686C
:102ACC005B8D9BB2013B9AB27B685A85FFE700BFD6
:102ADC001037BD4680BD80B584B000AF78607B6890
:102AEC00DB6AFB607B6893F83D30DBB2212B64D151
:102AFC007B685B8D9BB2002B12D07B685B6A1A786B
:102B0C007B681B681A617B685B6A5A1C7B685A621B
:102B1C007B685B8D9BB2013B9AB27B685A854CE01B
:102B2C00FB68082B1DD0FB68202B1AD0FB6813F513
:102B3C00803F16D07B681B685A687B681B6822F440
:102B4C00E0625A607B6811221A637B68002283F86A
:102B5C003E207B68202283F83D207868FFF7B6FE84
:102B6C002BE07B681B685A687B681B6822F4E06268
:102B7C005A607B681B681A687B681B6842F4007299
:102B8C001A607B6800221A637B68202283F83D2040
:102B9C007B6893F83E30DBB2402B07D17B68002278
:102BAC0083F83E207868FFF7CBFE06E07B680022B6
:102BBC0083F83E207868FFF789FE00BF1037BD46CA
:102BCC0080BD80B584B000AF78607B6893F83D30F1
:102BDC00FB737B681B6D002B1DD17B68DB6C012BA1
:102BEC000BD17B689B6CDAB27B681B681A617B68C3
:102BFC001B6D9A1C7B681A6573E07B689B6C9BB29F
:102C0C001B12DAB27B681B681A617B681B6D5A1C3D
:102C1C007B681A6565E07B681B6D012B0BD17B68AB
:102C2C009B6CDAB27B681B681A617B681B6D5A1C43
:102C3C007B681A6555E07B681B6D022B51D1FB7BC1
:102C4C00222B0DD17B681B681A687B681B6842F4C9
:102C5C0080721A607B681B6D5A1C7B681A6540E099
:102C6C007B685B8D9BB2002B15D0FB7B212B12D18B
:102C7C007B685B6A1A787B681B681A617B685B6A85
:102C8C005A1C7B685A627B685B8D9BB2013B9AB283
:102C9C007B685A8525E07B685B8D9BB2002B20D12D
:102CAC00FB7B212B1DD17B681B685A687B681B68DA
:102CBC0022F4E0625A607B681B681A687B681B68A8
:102CCC0042F400721A607B6800221A637B6820222F
:102CDC0083F83D207B68002283F83E207868FFF75C
:102CEC002FFE00BF1037BD4680BD80B584B000AF4D
:102CFC0078607B6893F83D30DBB2222B40F0A280E9
:102D0C007B685B8D9BB2FB60FB68032B21D97B68D6
:102D1C001B681A697B685B6AD2B21A707B685B6A43
:102D2C005A1C7B685A627B685B8D9BB2013B9AB2E2
:102D3C007B685A857B685B8D9BB2032B40F082804D
:102D4C007B681B685A687B681B6822F480625A6037
:102D5C0078E07B68DB6A022B74D0FB68012B02D015
:102D6C00FB68002B6ED1786801F0CCFA0346002B7F
:102D7C0042D17B681B681A687B681B6822F48062EE
:102D8C001A607B681B685A687B681B6822F4E062D7
:102D9C005A607B681B681A697B685B6AD2B21A70CE
:102DAC007B685B6A5A1C7B685A627B685B8D9BB242
:102DBC00013B9AB27B685A857B68202283F83D20C0
:102DCC007B6893F83E30DBB2402B0AD17B68002243
:102DDC0083F83E207B6800221A637868FFF7B9FD00
:102DEC0030E07B68002283F83E207B6812221A6355
:102DFC007868FFF774FD25E07B681B685A687B6870
:102E0C001B6822F4E0625A607B681B681A697B6855
:102E1C005B6AD2B21A707B685B6A5A1C7B685A6216
:102E2C007B685B8D9BB2013B9AB27B685A857B6851
:102E3C00202283F83D207B68002283F83E207868AE
:102E4C00FFF790FD00BF1037BD4680BD80B584B044
:102E5C0000AF78607B68DB6AFB607B685B8D9BB244
:102E6C00042B1BD17B681B685A687B681B6822F497
:102E7C0080625A607B681B681A697B685B6AD2B295
:102E8C001A707B685B6A5A1C7B685A627B685B8D24
:102E9C009BB2013B9AB27B685A85BDE07B685B8D27
:102EAC009BB2032B29D17B681B685A687B681B6813
:102EBC0022F480625A60FB68042B0AD0FB68022B58
:102ECC0007D07B681B681A687B681B6822F48062D9
:102EDC001A607B681B681A697B685B6AD2B21A70CD
:102EEC007B685B6A5A1C7B685A627B685B8D9BB201
:102EFC00013B9AB27B685A858EE07B685B8D9BB2F6
:102F0C00022B76D1FB68012B02D0FB68102B08D169
:102F1C007B681B681A687B681B6822F480621A60E5
:102F2C0019E0FB68042B02D0FB68022B08D17B68EC
:102F3C001B681A687B681B6842F480621A600AE09E
:102F4C00FB68102B07D07B681B681A687B681B68B2
:102F5C0042F400721A607B681B681A697B685B6AB2
:102F6C00D2B21A707B685B6A5A1C7B685A627B68A7
:102F7C005B8D9BB2013B9AB27B685A857B681B6860
:102F8C001A697B685B6AD2B21A707B685B6A5A1CDE
:102F9C007B685A627B685B8D9BB2013B9AB27B6803
:102FAC005A857B681B685A687B681B6822F44072E0
:102FBC005A607B68202283F83D207B6893F83E3072
:102FCC00DBB2402B0AD17B68002283F83E207B6861
:102FDC0000221A637868FFF7BCFC1DE07B680022B6
:102FEC0083F83E207B6812221A637868FFF777FC1F
:102FFC0012E07B681B681A697B685B6AD2B21A7034
:10300C007B685B6A5A1C7B685A627B685B8D9BB2DF
:10301C00013B9AB27B685A8500BF1037BD4680BD14
:10302C0080B483B000AF78607B6893F83E30DBB23D
:10303C00402B17D17B681B6D002B09D17B685B6C17
:10304C00DBB21A467B681B6802F0FE021A6167E06D
:10305C007B685B6CDBB243F00103DAB27B681B6804
:10306C001A615DE07B681B69B3F5804F33D17B68D7
:10307C0093F83D30DBB2212B09D17B685B6CDBB262
:10308C001A467B681B6802F0FE021A6108E07B6836
:10309C005B6CDBB243F00103DAB27B681B681A612C
:1030AC007B685B6B002B04D07B685B6B9B6A002B93
:1030BC0008D17B689B6B002B32D07B689B6B9B6A27
:1030CC00002B2DD07B681B685A687B681B6842F408
:1030DC0000625A6024E07B681B6D002B0ED17B686C
:1030EC005B6C9BB2DB11DBB203F00603DBB263F06B
:1030FC000F03DAB27B681B681A6111E07B681B6DE9
:10310C00012B0DD17B685B6C9BB2DB11DBB203F046
:10311C000603DBB263F00E03DAB27B681B681A613C
:10312C0000BF0C37BD4680BC704780B483B000AF85
:10313C0078607B685B6CDAB27B681B681A617B68B1
:10314C005B6B002B04D07B685B6B9B6A002B08D1FC
:10315C007B689B6B002B0CD07B689B6B9B6A002B5A
:10316C0007D07B681B685A687B681B6842F4006256
:10317C005A6000BF0C37BD4680BC704780B491B01C
:10318C0000AF78607B6893F83E3087F83F307B68FF
:10319C00DB6ABB637B681B6B7B637B6893F83D309E
:1031AC00DBB2222B40F074817B681B6D002B0FD19E
:1031BC0097F83F30402B0BD100233B637B681B6897
:1031CC005B693B637B681B689B693B633B6B6BE197
:1031DC007B681B6D002B1DD17B681B69B3F5404FC1
:1031EC0018D10023FB627B681B685B69FB627B6800
:1031FC001B689B69FB62FB6A7B681B681A687B68AF
:10320C001B6842F480721A607B681B6D5A1C7B68C9
:10321C001A6549E17B685B8D9BB2002B13D10023AF
:10322C00BB627B681B685B69BB627B681B689B69C4
:10323C00BB62BB6A7B681B681A687B681B6842F4BC
:10324C0000721A6020E17B685B8D9BB2012B40F011
:10325C008A80BB6B13F5803F37D17B681B681A687B
:10326C007B681B6822F480621A607B681B685B6851
:10327C0003F40063B3F5006F13D17B681B681A6805
:10328C007B681B6822F480621A6000237B627B6877
:10329C001B685B697B627B681B689B697B627B6AD2
:1032AC00F2E000233B627B681B685B693B627B68D6
:1032BC001B689B693B623B6A7B681B681A687B686E
:1032CC001B6842F400721A60DEE0BB6B082B2ED038
:1032DC00BB6B202B2BD07B6B122B02D1BB6B012B2E
:1032EC0025D1BB6B042B0ED0BB6B022B0BD0BB6B55
:1032FC00102B08D07B681B681A687B681B6822F44B
:10330C0080621A6007E07B681B681A687B681B6820
:10331C0042F480621A600023FB617B681B685B6966
:10332C00FB617B681B689B69FB61FB69ACE07B689C
:10333C001B681A687B681B6822F480621A60002381
:10334C00BB617B681B685B69BB617B681B689B69A5
:10335C00BB61BB697B681B681A687B681B6842F49D
:10336C0000721A6090E07B685B8D9BB2022B58D187
:10337C00BB6B042B21D0BB6B022B1ED0BB6B102B59
:10338C001BD07B681B681A687B681B6842F4006260
:10339C001A6000237B617B681B685B697B617B68BF
:1033AC001B689B697B617B697B681B681A687B68FF
:1033BC001B6822F480621A6012E07B681B681A6832
:1033CC007B681B6842F480621A6000233B617B6857
:1033DC001B685B693B617B681B689B693B613B6954
:1033EC007B681B685B6803F40063B3F5006F4BD11B
:1033FC00BB6B13F5803F0BD0BB6B012B08D0BB6BA9
:10340C00082B05D0BB6B102B02D0BB6B202B3BD1F8
:10341C007B681B685A687B681B6842F480525A6050
:10342C0032E07B681B681A687B681B6842F4806218
:10343C001A607B681B685B6803F40063B3F5006F6C
:10344C0017D1BB6B13F5803F0BD0BB6B012B08D096
:10345C00BB6B082B05D0BB6B102B02D0BB6B202B8E
:10346C0007D17B681B685A687B681B6842F48052E2
:10347C005A600023FB607B681B685B69FB607B68A0
:10348C001B689B69FB60FB687B6800221A650BE07C
:10349C000023BB607B681B685B69BB607B681B6837
:1034AC009B69BB60BB68FFE700BF4437BD4680BC6F
:1034BC00704780B584B000AF78607B6893F83D307E
:1034CC00FB737B685B8D9BB2002B2BD07B685B6A9C
:1034DC001A787B681B681A617B685B6A5A1C7B686C
:1034EC005A627B685B8D9BB2013B9AB27B685A85B2
:1034FC007B685B8D9BB2002B14D1FB7B292B11D1EC
:10350C007B681B685A687B681B6822F480625A606F
:10351C007B6821221A637B68282283F83D20786817
:10352C00FFF7E6F900BF1037BD4680BD80B483B00D
:10353C0000AF78607B685B8D9BB2002B11D07B68F1
:10354C005B6A1A787B681B681A617B685B6A5A1C19
:10355C007B685A627B685B8D9BB2013B9AB27B683D
:10356C005A8500BF0C37BD4680BC704780B584B00F
:10357C0000AF78607B6893F83D30FB737B685B8DA4
:10358C009BB2002B2CD07B681B681A697B685B6A2A
:10359C00D2B21A707B685B6A5A1C7B685A627B6871
:1035AC005B8D9BB2013B9AB27B685A857B685B8DC5
:1035BC009BB2002B14D1FB7B2A2B11D17B681B688F
:1035CC005A687B681B6822F480625A607B682222EE
:1035DC001A637B68282283F83D207868FFF791F9FD
:1035EC0000BF1037BD4680BD80B483B000AF78609B
:1035FC007B685B8D9BB2002B12D07B681B681A69B1
:10360C007B685B6AD2B21A707B685B6A5A1C7B68F7
:10361C005A627B685B8D9BB2013B9AB27B685A8580
:10362C0000BF0C37BD4680BC704780B584B000AF7E
:10363C00786039600023FB737B6893F83D30DBB214
:10364C0003F02803282B27D17B681B685A687B68FA
:10365C001B6822F480625A603B689B0803F00103EC
:10366C00002B01D10123FB733B68DB0903F0010341
:10367C00002B03D17B68DB68BB8102E07B689B6914
:10368C00BB817B68002283F83C20BA89FB7B1946FE
:10369C007868FFF73FF90EE00023BB607B681B687E
:1036AC005B69BB607B681B689B69BB60BB687B68A4
:1036BC00002283F83C2000BF1037BD4680BD0000BF
:1036CC0080B584B000AF78607B6893F83D30FB73B5
:1036DC007B681B685A687B681B6822F4E0625A603E
:1036EC000023BB607B681B685B69BB607B681B68E5
:1036FC001A687B681B6842F001021A60BB687B6821
:10370C001B681A687B681B6822F480621A607B68ED
:10371C001B685B6803F40063B3F5006F72D1FB7B2D
:10372C00222B02D0FB7B2A2B35D17B689B6B1B6831
:10373C005B689AB27B685A857B685B8D9BB2002B69
:10374C0005D07B681B6C43F004027B681A647B68B1
:10375C001B685A687B681B6822F400625A607B689D
:10376C009B6B1846FEF748F80346012B49D07B6843
:10377C009B6B694A5A637B689B6B1846FDF7C6FFC7
:10378C000346002B3DD07B689B6B5B6B7A68926B1E
:10379C001046984735E07B685B6B1B685B689AB298
:1037AC007B685A857B685B8D9BB2002B05D07B6850
:1037BC001B6C43F004027B681A647B681B685A68B4
:1037CC007B681B6822F400625A607B685B6B18464E
:1037DC00FEF712F80346012B14D07B685B6B4E4A44
:1037EC005A637B685B6B1846FDF790FF0346002B12
:1037FC0008D07B685B6B5B6B7A68526B10469847A2
:10380C0000E000BF7B685B8D9BB2002B3ED07B68D9
:10381C001B685B6903F00403042B12D17B681B68E3
:10382C001A697B685B6AD2B21A707B685B6A5A1C35
:10383C007B685A627B685B8D9BB2013B9AB27B685A
:10384C005A857B681B685B6903F04003402B12D1DF
:10385C007B681B681A697B685B6AD2B21A707B68DA
:10386C005B6A5A1C7B685A627B685B8D9BB2013B1E
:10387C009AB27B685A857B685B8D9BB2002B05D016
:10388C007B681B6C43F004027B681A647B681B6CBE
:10389C00002B03D0786800F0B3F839E0FB7B2A2BBF
:1038AC0009D17B6800221A637B68282283F83D20AB
:1038BC007868FFF726F87B6893F83D30DBB2282B4D
:1038CC0011D17B68154ADA627B6800221A637B6827
:1038DC00202283F83D207B68002283F83E20786804
:1038EC00FFF725F814E07B681B6B222B02D0FB7BC7
:1038FC00222B0DD17B6800221A637B68202283F86F
:10390C003D207B68002283F83E207868FEF7F9FFA3
:10391C0000BF1037BD4680BD113F00080000FFFFFF
:10392C0080B584B000AF78607B6893F83D30FB7352
:10393C007B68DB6ABB60BB68082B02D0BB68202BA2
:10394C0029D1FB7B282B26D17B682C4ADA627B6839
:10395C001B685A687B681B6822F4E0625A607B68BB
:10396C001B686FF480625A617B681B681A687B68FD
:10397C001B6822F480621A607B6800221A637B68E1
:10398C00202283F83D207B68002283F83E20786853
:10399C00FEF7CDFF2EE0FB7B212B26D17B68174A4F
:1039AC00DA627B6821221A637B68202283F83D202F
:1039BC007B68002283F83E207B681B685A687B6812
:1039CC001B6822F4E0625A607B681B686FF48062AB
:1039DC005A617B681B681A687B681B6822F48062DA
:1039EC001A607868FEF784FF04E07B681B686FF44C
:1039FC0080625A6100BF1037BD4680BD0000FFFFDA
:103A0C0080B584B000AF78607B6893F83D30FB7371
:103A1C007B6893F83E30BB73BB7B102B02D0BB7B17
:103A2C00402B0AD1FB7B222B07D17B681B681A68C1
:103A3C007B681B6822F400621A60FB7B03F028038E
:103A4C00282B07D17B6800221A637B68282283F815
:103A5C003D2015E07B681B685B6803F40063B3F5DD
:103A6C00006F0AD0FB7B602B07D07B68202283F889
:103A7C003D207B68002283F83E207B6800221A637D
:103A8C007B681B685B6803F40063B3F5006F61D15E
:103A9C007B681B685A687B681B6822F400625A605A
:103AAC007B685B6B93F82130012B20D07B685B6BC0
:103ABC006A4A5A637B685B6B1846FDF727FE034620
:103ACC00002B00F089807B681B681A687B681B6878
:103ADC0022F001021A607B68202283F83D207B686B
:103AEC005B6B5B6B7A68526B1046984774E07B6833
:103AFC009B6B5A4A5A637B689B6B1846FDF706FE14
:103B0C000346002B68D07B681B685B6903F040039D
:103B1C00402B0BD17B681B681A697B685B6AD2B23D
:103B2C001A707B685B6A5A1C7B685A627B681B68DC
:103B3C001A687B681B6822F001021A607B682022DD
:103B4C0083F83D207B689B6B5B6B7A68926B1046AD
:103B5C00984741E07B6893F83D30DBB2602B25D170
:103B6C007B68202283F83D207B6800221A647B68E6
:103B7C001B685B6903F04003402B0BD17B681B680F
:103B8C001A697B685B6AD2B21A707B685B6A5A1CD2
:103B9C007B685A627B681B681A687B681B6822F01A
:103BAC0001021A607868FEF7E6FE15E07B681B6878
:103BBC005B6903F04003402B0BD17B681B681A69CF
:103BCC007B685B6AD2B21A707B685B6A5A1C7B6832
:103BDC005A627868FEF7C6FE7B681B6CBB60BB68DC
:103BEC0003F00103002B0ED1BB6803F00203002B82
:103BFC0009D1BB6803F00403002B04D1BB6803F0AC
:103C0C000803002B07D07B681B685A687B681B680D
:103C1C0022F4E0625A607B6893F83D30FB737B685A
:103C2C001B6C03F00403042B13D1FB7B282B10D14A
:103C3C007B680B4ADA627B6800221A637B6820225D
:103C4C0083F83D207B68002283F83E207868FEF7DD
:103C5C006EFE00BF1037BD4680BD00BF113F00088F
:103C6C000000FFFF80B588B002AFF8607A603B605F
:103C7C000B467B81FB68DB6A7B617B69082B06D07A
:103C8C007B69012B03D07B6913F5803F08D1FB685E
:103C9C001B681A68FB681B6842F480721A600BE0A0
:103CAC00FB681B6B122B07D1FB681B681A68FB683F
:103CBC001B6842F480721A603B6800937B68002298
:103CCC004FF00111F86800F0C5F90346002B0DD038
:103CDC00FB681B681B6803F48073B3F5807F03D10A
:103CEC00FB684FF400721A64032335E0FB681B6910
:103CFC00B3F5804F08D17B89DBB21A46FB681B6891
:103D0C0002F0FE021A611BE07B89DB11DBB203F0CF
:103D1C000603DBB263F00F03DAB2FB681B681A61AF
:103D2C003B687A680E49F86800F0EBF90346002B03
:103D3C0001D0012310E07B89DAB2FB681B681A61A1
:103D4C003B687A680749F86800F0DBF90346002BFA
:103D5C0001D0012300E0002318461837BD4680BD72
:103D6C00080001000200010080B588B002AFF860C5
:103D7C007A603B600B467B81FB68DB6A7B61FB688E
:103D8C001B681A68FB681B6842F480621A607B69C6
:103D9C00082B06D07B69012B03D07B6913F5803F80
:103DAC0008D1FB681B681A68FB681B6842F48072B8
:103DBC001A600BE0FB681B6B112B07D1FB681B68AF
:103DCC001A68FB681B6842F480721A603B680093A7
:103DDC007B6800224FF00111F86800F03BF90346B4
:103DEC00002B0DD0FB681B681B6803F48073B3F5C4
:103DFC00807F03D1FB684FF400721A64032379E0CF
:103E0C00FB681B69B3F5804F08D17B89DBB243F0AB
:103E1C000103DAB2FB681B681A615FE07B89DB1176
:103E2C00DBB203F00603DBB263F00F03DAB2FB681C
:103E3C001B681A613B687A683049F86800F061F9D0
:103E4C000346002B01D0012354E07B89DAB2FB68D6
:103E5C001B681A613B687A682949F86800F051F9C7
:103E6C000346002B01D0012344E000233B61FB6897
:103E7C001B685B693B61FB681B689B693B613B6929
:103E8C00FB681B681A68FB681B6842F480721A6036
:103E9C003B6800937B6800224FF00111F86800F03A
:103EAC00D9F80346002B0DD0FB681B681B6803F484
:103EBC008073B3F5807F03D1FB684FF400721A64F2
:103ECC00032317E07B89DB11DBB203F00603DBB2C3
:103EDC0063F00E03DAB2FB681B681A613B687A6800
:103EEC000749F86800F00DF90346002B01D00123B7
:103EFC0000E0002318461837BD4680BD08000100BD
:103F0C000200010080B586B000AF78600023FB6032
:103F1C007B685B6A7B617B6993F83D30FB744B4B30
:103F2C001B68DB084A4AA2FB03231A0A13469B00B0
:103F3C001344DA00D31AFB60FB68002B06D17B69B3
:103F4C001B6C43F020027B691A640AE0FB68013B9E
:103F5C00FB607B691B681B6803F40073B3F5007F7F
:103F6C00EAD07B695B6B002B03D07B695B6B002217
:103F7C009A627B699B6B002B03D07B699B6B002245
:103F8C009A627B691B681A687B691B6822F48062E1
:103F9C001A607B6900225A857B695B6B002B03D00E
:103FAC007B695B6B00225A637B699B6B002B03D094
:103FBC007B699B6B00225A637B691B681A687B695F
:103FCC001B6822F001021A607B6993F83D30DBB26A
:103FDC00602B0ED17B69202283F83D207B69002267
:103FEC0083F83E207B6900221A647869FEF7C3FCD3
:103FFC0027E0FB7C03F02803282B17D17B691B6877
:10400C001A687B691B6842F001021A607B691B68A5
:10401C001A687B691B6842F480621A607B69002213
:10402C001A637B69282283F83D2007E07B692022F4
:10403C0083F83D207B69002283F83E207869FEF7E7
:10404C0091FC00BF1837BD4680BD00BF00000020AA
:10405C0089B5F81480B584B000AFF860B9603B60E6
:10406C001346FB7125E03B68B3F1FF3F21D0FDF710
:10407C0011FA0246BB69D31A3A689A4202D33B68DA
:10408C00002B16D1FB6800221A63FB68202283F8F0
:10409C003D20FB68002283F83E20FB681B6C43F03C
:1040AC002002FB681A64FB68002283F83C20012381
:1040BC0023E0BB681B0CDBB2012B0DD1FB681B682A
:1040CC005B69DA43BB6813409BB2002B0CBF012326
:1040DC000023DBB21A460CE0FB681B689B69DA43D1
:1040EC00BB6813409BB2002B0CBF01230023DBB237
:1040FC001A46FB799A42B6D0002318461037BD46B3
:10410C0080BD80B584B000AFF860B9607A603B6068
:10411C0051E0FB681B685B6903F48063B3F5806F47
:10412C0023D1FB681B681A68FB681B6842F4007299
:10413C001A60FB681B686FF480625A61FB6800228E
:10414C001A63FB68202283F83D20FB68002283F869
:10415C003E20FB681B6C43F00402FB681A64FB688E
:10416C00002283F83C20012346E07B68B3F1FF3F3B
:10417C0021D0FDF78FF902463B68D31A7A689A4230
:10418C0002D37B68002B16D1FB6800221A63FB68F4
:10419C00202283F83D20FB68002283F83E20FB6838
:1041AC001B6C43F02002FB681A64FB68002283F846
:1041BC003C20012320E0BB681B0CDBB2012B0CD193
:1041CC00FB681B685B69DA43BB6813409BB2002B2E
:1041DC0014BF01230023DBB20BE0FB681B689B6957
:1041EC00DA43BB6813409BB2002B14BF012300239E
:1041FC00DBB2002B8DD1002318461037BD4680BD95
:10420C0080B584B000AFF860B9607A602DE0F868D2
:10421C0000F000F90346002B01D001232DE0BB6810
:10422C00B3F1FF3F21D0FDF735F902467B68D31A75
:10423C00BA689A4202D3BB68002B16D1FB680022E5
:10424C001A63FB68202283F83D20FB68002283F868
:10425C003E20FB681B6C43F02002FB681A64FB6871
:10426C00002283F83C20012307E0FB681B685B6994
:10427C0003F08003802BCAD1002318461037BD46AB
:10428C0080BD80B584B000AFF860B9607A602DE075
:10429C00F86800F0BFF80346002B01D001232DE095
:1042AC00BB68B3F1FF3F21D0FDF7F4F802467B6801
:1042BC00D31ABA689A4202D3BB68002B16D1FB689A
:1042CC0000221A63FB68202283F83D20FB68002241
:1042DC0083F83E20FB681B6C43F02002FB681A64D9
:1042EC00FB68002283F83C20012307E0FB681B6875
:1042FC005B6903F00403042BCAD100231846103762
:10430C00BD4680BD80B485B000AF78600023FB60F3
:10431C00134B1B68DB08134AA2FB03231A0A134630
:10432C009B001344FB60FB68013BFB60FB68002BAC
:10433C0007D17B681B6C43F020027B681A64012355
:10434C0008E07B681B681B6803F40073B3F5007FFF
:10435C00E9D0002318461437BD4680BC704700BF17
:10436C000000002089B5F81480B584B000AFF86067
:10437C00B9607A6042E0FB681B685B6903F010036C
:10438C00102B19D1FB681B686FF010025A61FB6887
:10439C0000221A63FB68202283F83D20FB68002270
:1043AC0083F83E20FB681A6CFB681A64FB680022D9
:1043BC0083F83C20012329E0FDF76CF802467B686A
:1043CC00D31ABA689A4202D3BB68002B16D1FB6889
:1043DC0000221A63FB68202283F83D20FB68002230
:1043EC0083F83E20FB681B6C43F02002FB681A64C8
:1043FC00FB68002283F83C20012307E0FB681B6864
:10440C005B6903F04003402BB5D1002318461037ED
:10441C00BD4680BD80B483B000AF78607B681B68FC
:10442C005B6903F48063B3F5806F1BD17B681B68F9
:10443C006FF480625A617B6800221A637B682022C9
:10444C0083F83D207B68002283F83E207B681B6C40
:10445C0043F004027B681A647B68002283F83C20DA
:10446C00012300E0002318460C37BD4680BC704782
:10447C0080B483B000AF78607B68DB6AB3F52A0F39
:10448C0003D17B680122DA6207E07B68DB6AB3F157
:10449C002A4F02D17B680822DA6200BF0C37BD4676
:1044AC0080BC704780B586B000AF78607B68002B0D
:1044BC0001D1012372E27B681B6803F00103002B1E
:1044CC0000F08780924B5B6803F00C03042B0CD03C
:1044DC008F4B5B6803F00C03082B12D18C4B5B6881
:1044EC0003F48033B3F5803F0BD1894B1B6803F485
:1044FC000033002B6CD07B685B68002B68D10123E8
:10450C004CE27B685B68B3F5803F06D1804B1B683F
:10451C007F4A43F4803313602EE07B685B68002B8A
:10452C000CD17B4B1B687A4A23F480331360784B95
:10453C001B68774A23F4802313601DE07B685B685B
:10454C00B3F5A02F0CD1724B1B68714A43F4802336
:10455C0013606F4B1B686E4A43F4803313600BE09F
:10456C006B4B1B686A4A23F480331360684B1B68DF
:10457C00674A23F4802313607B685B68002B13D09D
:10458C00FCF788FF386108E0FCF784FF02463B69C2
:10459C00D31A642B01D9032300E25D4B1B6803F48F
:1045AC000033002BF0D014E0FCF774FF386108E006
:1045BC00FCF770FF02463B69D31A642B01D9032325
:1045CC00ECE1534B1B6803F40033002BF0D100E0FB
:1045DC0000BF7B681B6803F00203002B63D04C4BBD
:1045EC005B6803F00C03002B0BD0494B5B6803F0AA
:1045FC000C03082B1CD1464B5B6803F48033002B57
:10460C0016D1434B1B6803F00203002B05D07B68CB
:10461C001B69012B01D00123C0E13D4B1B6823F02A
:10462C00F8027B685B69DB00394913430B603AE0A5
:10463C007B681B69002B20D0364B01221A60FCF7DB
:10464C0029FF386108E0FCF725FF02463B69D31AC5
:10465C00022B01D90323A1E12D4B1B6803F00203AC
:10466C00002BF0D02A4B1B6823F0F8027B685B69A7
:10467C00DB00274913430B6015E0264B00221A6020
:10468C00FCF708FF386108E0FCF704FF02463B69C1
:10469C00D31A022B01D9032380E11D4B1B6803F0B5
:1046AC000203002BF0D17B681B6803F00803002B7E
:1046BC003AD07B689B69002B19D0174B01221A60EA
:1046CC00FCF7E8FE386108E0FCF7E4FE02463B69C3
:1046DC00D31A022B01D9032360E10D4B5B6A03F063
:1046EC000203002BF0D0012000F0C4FA1CE00A4BAE
:1046FC0000221A60FCF7CEFE38610FE0FCF7CAFE10
:10470C0002463B69D31A022B08D9032346E100BFAA
:10471C00001002400000424280044242924B5B6A0D
:10472C0003F00203002BE9D17B681B6803F0040340
:10473C00002B00F0A6800023FB758B4BDB6903F08C
:10474C008053002B0DD1884BDB69874A43F0805393
:10475C00D361854BDB6903F08053BB60BB680123DD
:10476C00FB75824B1B6803F48073002B18D17F4BB5
:10477C001B687E4A43F480731360FCF78BFE386130
:10478C0008E0FCF787FE02463B69D31A642B01D97B
:10479C00032303E1754B1B6803F48073002BF0D0EB
:1047AC007B68DB68012B06D16F4B1B6A6E4A43F0AA
:1047BC00010313622DE07B68DB68002B0CD16A4B84
:1047CC001B6A694A23F001031362674B1B6A664A32
:1047DC0023F0040313621CE07B68DB68052B0CD10F
:1047EC00614B1B6A604A43F0040313625E4B1B6A05
:1047FC005D4A43F0010313620BE05B4B1B6A5A4AA0
:10480C0023F001031362584B1B6A574A23F004032D
:10481C0013627B68DB68002B15D0FCF73BFE38611C
:10482C000AE0FCF737FE02463B69D31A41F28832A4
:10483C00934201D90323B1E04B4B1B6A03F00203F3
:10484C00002BEED014E0FCF725FE38610AE0FCF7F3
:10485C0021FE02463B69D31A41F28832934201D9B8
:10486C0003239BE0404B1B6A03F00203002BEED1A9
:10487C00FB7D012B05D13C4BDB693B4A23F080537C
:10488C00D3617B68DB69002B00F08780364B5B685B
:10489C0003F00C03082B61D07B68DB69022B46D13B
:1048AC00334B00221A60FCF7F5FD386108E0FCF789
:1048BC00F1FD02463B69D31A022B01D903236DE0AB
:1048CC00294B1B6803F00073002BF0D17B681B6A2B
:1048DC00B3F5803F08D1244B5B6823F400327B682E
:1048EC009B68214913434B601F4B5B6823F4741284
:1048FC007B68196A7B685B6A0B431B4913434B60EB
:10490C001B4B01221A60FCF7C5FD386108E0FCF76F
:10491C00C1FD02463B69D31A022B01D903233DE0AA
:10492C00114B1B6803F00073002BF0D035E0104BDB
:10493C0000221A60FCF7AEFD386108E0FCF7AAFD16
:10494C0002463B69D31A022B01D9032326E0064BFE
:10495C001B6803F00073002BF0D11EE07B68DB6951
:10496C00012B07D1012319E0001002400070004018
:10497C00600042420B4B5B68FB60FB6803F48032C7
:10498C007B681B6A9A4206D1FB6803F470127B6841
:10499C005B6A9A4201D0012300E0002318461837C5
:1049AC00BD4680BD0010024080B584B000AF786079
:1049BC0039607B68002B01D10123D0E06A4B1B6866
:1049CC0003F007033A689A4210D9674B1B6823F02F
:1049DC00070265493B6813430B60634B1B6803F08C
:1049EC0007033A689A4201D00123B8E07B681B6840
:1049FC0003F00203002B20D07B681B6803F0040338
:104A0C00002B05D0594B5B68584A43F4E063536064
:104A1C007B681B6803F00803002B05D0534B5B68C5
:104A2C00524A43F460535360504B5B6823F0F002DE
:104A3C007B689B684D4913434B607B681B6803F094
:104A4C000103002B40D07B685B68012B07D1474BDF
:104A5C001B6803F40033002B15D101237FE07B6826
:104A6C005B68022B07D1414B1B6803F00073002BD2
:104A7C0009D1012373E03D4B1B6803F00203002BAB
:104A8C0001D101236BE0394B5B6823F003027B6897
:104A9C005B68364913434B60FCF7FCFCF8600AE09A
:104AAC00FCF7F8FC0246FB68D31A41F288329342B9
:104ABC0001D9032353E02D4B5B6803F00C027B6898
:104ACC005B689B009A42EBD1274B1B6803F00703F2
:104ADC003A689A4210D2244B1B6823F007022249F1
:104AEC003B6813430B60204B1B6803F007033A68C9
:104AFC009A4201D0012332E07B681B6803F0040367
:104B0C00002B08D0194B5B6823F4E0627B68DB68F0
:104B1C00164913434B607B681B6803F00803002B9A
:104B2C0009D0124B5B6823F460527B681B69DB0075
:104B3C000E4913434B6000F021F802460B4B5B68A7
:104B4C001B0903F00F030A49CB5C22FA03F3094A51
:104B5C001360094B1B681846FCF75AFC00231846D7
:104B6C001037BD4680BD00BF00200240001002403F
:104B7C004C560008000000200400002090B48AB0BD
:104B8C0000AF294B3C1D0FCB84E80F0040F20123F2
:104B9C003B800023FB610023BB6100237B6200236D
:104BAC007B6100233B62214B5B68FB61FB6903F07B
:104BBC000C03042B02D0082B03D02BE01C4B3B62C4
:104BCC002BE0FB699B0C03F00F0328333B4413F8D9
:104BDC00243C7B61FB6903F48033002B12D0134B14
:104BEC005B685B0C03F0010328333B4413F8283C4F
:104BFC00BB617B690E4A03FB02F2BB69B2FBF3F3A8
:104C0C007B6204E07B690B4A02FB03F37B627B6AE9
:104C1C003B6202E0064B3B6200BF3B6A18462837FA
:104C2C00BD4690BC704700BF3C56000800100240C7
:104C3C0000127A0000093D0080B400AF024B1B68E3
:104C4C001846BD4680BC70470000002080B500AF00
:104C5C00FFF7F2FF0246054B5B681B0A03F00703E4
:104C6C000349CB5C22FA03F3184680BD00100240C6
:104C7C005C56000880B485B000AF78600A4B1B68A6
:104C8C000A4AA2FB03235B0A7A6802FB03F3FB606C
:104C9C0000BFFB685A1EFA60002BF9D100BF00BFA1
:104CAC001437BD4680BC704700000020D34D621005
:104CBC00014B1868704700BF0C00002070B500262F
:104CCC000C4D0D4C641BA410A64209D100F09CFCA9
:104CDC0000260A4D0A4C641BA410A64205D170BDD7
:104CEC0055F8043B98470136EEE755F8043B9847D6
:104CFC000136F2E7985600089856000898560008B6
:104D0C009C5600080A44914200F1FF3300D17047D1
:104D1C0010B511F8014B914203F8014FF9D110BDB8
:104D2C0003460244934200D1704703F8011BF9E794
:104D3C000EB46FF0004100B59CB01DAB0290069014
:104D4C00079104910848094953F8042B0591006810
:104D5C0002A9019300F068F80022029B1A701CB0A3
:104D6C005DF804EB03B070470C0000200802FFFF55
:104D7C002DE9F0478E6882469E420C4690461F46AF
:104D8C0038D88A8912F4906F32D0256809690133BA
:104D9C00A5EB010965694B4405EB450505EBD5759C
:104DAC006D109D4238BF1D46530531D5294600F084
:104DBC0061FB064650B90C234FF0FF30CAF80030A7
:104DCC00A38943F04003A381BDE8F0874A462169DB
:104DDC00FFF798FFA38923F4906343F08003A3812A
:104DEC0026614E4426603E466561A5EB0905A5602B
:104DFC00BE4200D93E4632464146206800F0B8FA21
:104E0C00A36800209B1BA360236833442360DBE76B
:104E1C002A4600F0A3FB06460028E1D15046216942
:104E2C0000F0C0FAC7E700002DE9F04F98468B89D7
:104E3C0007461B060D4614469DB00ED50B6963B98B
:104E4C00402100F017FB2860286120B90C233B603F
:104E5C004FF0FF30D1E040236B61002309932023F6
:104E6C008DF8293030234FF00109CDF80C80DFF894
:104E7C00A4818DF82A3023469A4613F8012B0AB1E7
:104E8C00252AF9D1BAEB040B0BD05B4622462946F6
:104E9C003846FFF76DFF013000F0AA80099A5A449A
:104EAC0009929AF80030002B00F0A28000234FF0FA
:104EBC00FF32CDE905230AF1010A049307938DF81B
:104ECC0053301A935446052214F8011B514800F034
:104EDC0041FA049AD8B9D00644BF20238DF8533038
:104EEC00110744BF2B238DF853309AF800302A2B2E
:104EFC0015D0544600204FF00A0C079A214611F8A1
:104F0C00013B303B092B4ED9B0B1079214E0A0EB1A
:104F1C00080309FA03F31343A2460493D2E7039B55
:104F2C00191D1B680391002BBBBF5B4242F00202B0
:104F3C0007930793B8BF049223782E2B0CD1637878
:104F4C002A2B35D1039B02341A1D1B680392002BAC
:104F5C00B8BF4FF0FF330593DFF8BCA003225046D7
:104F6C00217800F0F7F940B14023A0EB0A0003FAD6
:104F7C0000F0049B01340343049314F8011B062234
:104F8C0026488DF8281000F0E5F9002838D0244B7D
:104F9C001BBB039B073323F0070308330393099BC5
:104FAC003344099367E70C4601200CFB0232A5E75A
:104FBC0000234FF00A0C194601340593204610F8D3
:104FCC00012B303A092A03D9002BC5D00591C3E730
:104FDC00044601230CFB0121F0E703AB00932A46A6
:104FEC003846104B04A9AFF30080421C0646D6D1BC
:104FFC00AB895B063FF52CAF09981DB0BDE8F08F6F
:10500C0003AB00932A463846064B04A900F07CF803
:10501C00EBE700BF645600086A5600086E5600089D
:10502C00000000007D4D00082DE9F047164699461A
:10503C008A680B6907469342B8BF1346336091F8F0
:10504C0043200C46DDF820800AB10133336023681D
:10505C00990642BF336802333360256815F00605A4
:10506C0006D104F1190AE36832689B1AAB4228DCBA
:10507C0094F84320131E226818BF012392062DD4E6
:10508C004946384604F14302C047013020D023681A
:10509C00E56803F00603042B18BF002532684FF0B7
:1050AC000006A36808BFAD1A226908BF25EAE5759A
:1050BC009342C4BF9B1AED181A34B5421AD1002082
:1050CC0008E00123524649463846C047013003D117
:1050DC004FF0FF30BDE8F0870135C4E73020E11810
:1050EC0081F843005A1C94F845102244023382F88C
:1050FC004310C5E70123224649463846C0470130D4
:10510C00E6D00136D9E700002DE9FF470F7E914626
:10511C00782F80460C469A460C9D01F1430207D825
:10512C00622F0AD8002F00F0D980582F00F0A480ED
:10513C0004F1420584F842703AE0A7F16303152BA1
:10514C00F6D801A151F823F0AD510008C151000867
:10515C003D5100083D5100083D5100083D510008EB
:10516C00C15100083D5100083D5100083D51000857
:10517C003D510008CF520008F1510008B15200080F
:10518C003D5100083D510008F15200083D51000806
:10519C00F15100083D5100083D510008B95200087A
:1051AC002B681A1D1B682A6004F1420584F84230F2
:1051BC000123A4E020682968060601F104030AD53E
:1051CC000E682B60002E03DA2D23764284F84330D0
:1051DC000A235E4819E00E6810F0400F2B6018BFD0
:1051EC0036B2EFE72B682068191D2960010601D53E
:1051FC001E6802E04606FBD51E886F2F0CBF0823E5
:10520C000A235248002184F843106568002DA8BF7A
:10521C002168A560A4BF21F0040121600EB9002D06
:10522C004DD01546B6FBF3F103FB1167C75D05F8CE
:10523C00017D3746BB420E46F4D9082B0BD12368AF
:10524C00DE0708D5236961689942DEBF302305F873
:10525C00013C05F1FF35521B22614B46214640466D
:10526C00CDF800A003AAFFF7DFFE01304CD14FF0C0
:10527C00FF3004B0BDE8F087344881F845702968E8
:10528C00236851F8046B29601D0614D5DF0744BF51
:10529C0043F0200323601EB9236823F0200323600E
:1052AC001023AFE7236843F02003236078232848BA
:1052BC0084F84530E3E7590648BFB6B2E6E7154631
:1052CC00BBE72B682668181D6169286035061B68CA
:1052DC0001D5196002E07006FBD519800023154634
:1052EC002361BAE72B6800211A1D2A601D686268C9
:1052FC00284600F02FF808B1401B606063682361FA
:10530C00002384F84330A8E72A46494640462369DF
:10531C00D0470130ABD023689B0713D4E068039BC4
:10532C009842B8BF1846A4E7012332464946404686
:10533C00D04701309BD00135E36803995B1AAB422F
:10534C00F2DCEBE7002504F11906F5E775560008C9
:10535C0086560008034610B5C9B20244934218465B
:10536C0001D1002003E0047801338C42F6D110BD4A
:10537C00884210B501EB020402D98442234607D8B7
:10538C00431EA14208D011F8012B03F8012FF8E7B6
:10539C00014602448A4200D110BD13F8014D02F8B7
:1053AC00014DF7E738B50546002940D051F8043CCB
:1053BC000C1F002BB8BFE41800F010F91C4A13683E
:1053CC0033B9636014602846BDE8384000F00CB96E
:1053DC00A34208D9206821188B4201BF19685B6869
:1053EC0009182160EDE71A465B680BB1A342FAD9A4
:1053FC0011685018A0420BD1206801445018834208
:10540C001160E0D118685B68014411605360DAE701
:10541C0002D90C232B60D6E7206821188B4201BFE0
:10542C0019685B680918216063605460CBE738BD6C
:10543C00FC00002070B50E4E0C463168054611B9C3
:10544C0000F0BCF830602146284600F0B7F8431C49
:10545C000AD0C41C24F00304A04207D0211A284609
:10546C0000F0ACF8013001D14FF0FF34204670BD94
:10547C00000100202DE9F041CD1C25F00305083575
:10548C000C2D38BF0C25002D074601DBA94205D990
:10549C000C2300263B603046BDE8F0812E4E00F018
:1054AC009DF833681C4634BB29463846FFF7C2FFCB
:1054BC00431C04464DD134682646002E40D1236847
:1054CC003146384604EB030800F078F880453AD1B1
:1054DC00216803356D1A25F0030508350C2D38BFEE
:1054EC000C2538462946FFF7A5FF01302BD0236841
:1054FC002B4423600EE02268521B1ED40B2A16D9B3
:10550C006119A342256018BF5960636808BF3160F8
:10551C0062514B60384604F10B0600F065F826F03A
:10552C000706231DF21AB6D09B1BA350B3E7626883
:10553C00A3420CBF32605A60ECE723466468B2E7C2
:10554C0034467668B9E70C2338463B6000F04CF8DB
:10555C00A1E72560DEE700BFFC0000202DE9F0414B
:10556C00804614460E4621B91146BDE8F041FFF7BE
:10557C0081BF2AB9FFF716FF25462846BDE8F08102
:10558C0000F038F88442074602D8B4EB500F12D81A
:10559C0021464046FFF76EFF05460028EDD0BC4281
:1055AC002246314628BF3A46FFF7ACFB314640460F
:1055BC00FFF7F8FEE1E73546DFE7000038B50023DA
:1055CC00054D044608462B60FBF7AAFE431C02D18E
:1055DC002B6803B1236038BD04010020014800F0A2
:1055EC0011B800BF08010020014800F00CB800BF42
:1055FC000801002051F8043C181F002BBCBF0B58AD
:10560C00C018704770477047F8B500BFF8BC08BCAD
:10561C009E467047F8B500BFF8BC08BC9E46704764
:10562C00427566666572206572726F7200000000CA
:10563C0002030405060708090A0B0C0D0E0F1010C7
:10564C000000000000000000010203040607080926
:10565C000000000001020304232D302B2000686C95
:10566C004C00656667454647003031323334353679
:10567C0037383941424344454600303132333435B2
:0C568C00363738396162636465660000DF
:0456980031010008D4
:04569C000D010008F4
:1056A0000024F400100000000100000010000020A1
:1056B00000000000000000000000000000000000EA
:1056C00000000000000000000000000000000000DA
:1056D00000000000000000000000000000000000CA
:1056E00000000000000000000000000000000000BA
:1056F00000000000000000000000000000000000AA
:105700000000000000000000000000000000000099
:04000005080013A537
:00000001FF
